:020000040800F2
:1000000000800120912001082F190108E12001083A
:1000100031190108331901083519010800000000E1
:10002000000000000000000000000000E1200108C6
:100030003719010800000000E120010841D0000844
:10004000E1200108E1200108E1200108E120010888
:10005000E1200108E1200108CDF20008D7F20008F4
:10006000E1F20008EBF20008F5F20008E1200108D7
:10007000E1200108E1200108E1200108E120010858
:10008000E1200108E1200108E1200108E120010848
:10009000E1200108E1200108E1200108FFF2000849
:1000A000E1200108E1200108E1200108E120010828
:1000B000E1200108E1200108E1200108E120010818
:1000C000E1200108E1200108E1200108E120010808
:1000D000E1200108E1200108991F0108E120010841
:1000E00025F30008E5F80008E1200108E1200108F7
:1000F000E1200108E1200108E1200108E1200108D8
:10010000E1200108E1200108E1200108E1200108C7
:10011000E1200108E1200108313A0008E12001084E
:10012000E1200108E1200108E1200108E1200108A7
:10013000E1200108E1200108E1200108E120010897
:10014000E1200108E1200108E1200108E120010887
:10015000E1200108E1200108E1200108E120010877
:10016000E1200108E1200108E1200108E120010867
:10017000E1200108E1200108E12001080000000061
:08018000E1200108E120010863
:1001900010B5054C237833B9044B13B10448AFF3C1
:1001A00000800123237010BD200300200000000008
:1001B000A032010808B5034B1BB103490348AFF354
:1001C000008008BD0000000024030020A0320108C8
:1001D00081F0004102E000BF83F0004330B54FEAF8
:1001E00041044FEA430594EA050F08BF90EA020F65
:1001F0001FBF54EA000C55EA020C7FEA645C7FEAF8
:10020000655C00F0E2804FEA5454D4EB5555B8BF1A
:100210006D420CDD2C4480EA020281EA030382EA8B
:10022000000083EA010180EA020281EA0303362D1D
:1002300088BF30BD11F0004F4FEA01314FF4801CF0
:100240004CEA113102D0404261EB410113F0004F02
:100250004FEA03334CEA133302D0524263EB4303B9
:1002600094EA050F00F0A780A4F10104D5F1200E57
:100270000DDB02FA0EFC22FA05F2801841F10001B2
:1002800003FA0EF2801843FA05F359410EE0A5F186
:1002900020050EF1200E012A03FA0EFC28BF4CF0B7
:1002A000020C43FA05F3C01851EBE37101F000456D
:1002B00007D54FF0000EDCF1000C7EEB00006EEB7A
:1002C0000101B1F5801F1BD3B1F5001F0CD3490804
:1002D0005FEA30004FEA3C0C04F101044FEA44525B
:1002E00012F5800F80F09A80BCF1004F08BF5FEAE2
:1002F000500C50F1000041EB045141EA050130BDC2
:100300005FEA4C0C404141EB010111F4801FA4F164
:100310000104E9D191F0000F04BF01460020B1FAB9
:1003200081F308BF2033A3F10B03B3F120020CDAF1
:100330000C3208DD02F1140CC2F10C0201FA0CF0CF
:1003400021FA02F10CE002F11402D8BFC2F1200C34
:1003500001FA02F120FA0CFCDCBF41EA0C019040EA
:10036000E41AA2BF01EB0451294330BD6FEA040433
:100370001F3C1CDA0C340EDC04F11404C4F120021E
:1003800020FA04F001FA02F340EA030021FA04F330
:1003900045EA030130BDC4F10C04C4F1200220FA87
:1003A00002F001FA04F340EA0300294630BD21FAC5
:1003B00004F0294630BD94F0000F83F4801306BF8B
:1003C00081F480110134013D4EE77FEA645C18BF7F
:1003D0007FEA655C29D094EA050F08BF90EA020F16
:1003E00005D054EA000C04BF1946104630BD91EA0E
:1003F000030F1EBF0021002030BD5FEA545C05D111
:100400004000494128BF41F0004130BD14F580044F
:100410003CBF01F5801130BD01F0004545F0FE41C3
:1004200041F470014FF0000030BD7FEA645C1ABFF8
:10043000194610467FEA655C1CBF0B46024650EA2F
:10044000013406BF52EA033591EA030F41F400215B
:1004500030BD00BF90F0000F04BF0021704730B5E1
:100460004FF4806404F132044FF000054FF00001B6
:1004700050E700BF90F0000F04BF0021704730B577
:100480004FF4806404F1320410F0004548BF40424C
:100490004FF000013EE700BF42004FEAE2014FEAA1
:1004A00031014FEA02701FBF12F07F4393F07F4F7C
:1004B00081F06051704732F07F4208BF704793F07F
:1004C0007F4F04BF41F40021704730B54FF4607492
:1004D00001F0004521F000411CE700BF50EA010295
:1004E00008BF704730B54FF000050AE050EA01023E
:1004F00008BF704730B511F0004502D5404261EBAE
:1005000041014FF4806404F132045FEA915C3FF4EE
:10051000D8AE4FF003025FEADC0C18BF03325FEA8B
:10052000DC0C18BF033202EBDC02C2F1200300FA3C
:1005300003FC20FA02F001FA03FE40EA0E0021FA61
:1005400002F11444BDE600BF70B54FF0FF0C4CF44F
:10055000E06C1CEA11541DBF1CEA135594EA0C0F01
:1005600095EA0C0F00F0DEF82C4481EA030621EA3C
:100570004C5123EA4C5350EA013518BF52EA033577
:1005800041F4801143F4801338D0A0FB02CE4FF029
:100590000005E1FB02E506F00042E0FB03E54FF059
:1005A0000006E1FB03569CF0000F18BF4EF0010E51
:1005B000A4F1FF04B6F5007F64F5407404D25FEA4D
:1005C0004E0E6D4146EB060642EAC62141EA555100
:1005D0004FEAC52040EA5E504FEACE2EB4F1FD0C42
:1005E00088BFBCF5E06F1ED8BEF1004F08BF5FEAC0
:1005F000500E50F1000041EB045170BD06F0004672
:1006000046EA010140EA020081EA0301B4EB5C041E
:10061000C2BFD4EB0C0541EA045170BD41F4801116
:100620004FF0000E013C00F3AB8014F1360FDEBF3B
:10063000002001F0004170BDC4F10004203C35DA17
:100640000C341BDC04F11404C4F1200500FA05F39A
:1006500020FA04F001FA05F240EA020001F000423B
:1006600021F0004110EBD37021FA04F642EB0601B1
:100670005EEA430E08BF20EAD37070BDC4F10C04DB
:10068000C4F1200500FA04F320FA05F001FA04F29F
:1006900040EA020001F0004110EBD37041F100018B
:1006A0005EEA430E08BF20EAD37070BDC4F1200596
:1006B00000FA05F24EEA020E20FA04F301FA05F2FE
:1006C00043EA020321FA04F001F0004121FA04F2A6
:1006D00020EA020000EBD3705EEA430E08BF20EA76
:1006E000D37070BD94F0000F0FD101F000464000B0
:1006F00041EB010111F4801F08BF013CF7D041EA32
:10070000060195F0000F18BF704703F00046520035
:1007100043EB030313F4801F08BF013DF7D043EA06
:100720000603704794EA0C0F0CEA135518BF95EABC
:100730000C0F0CD050EA410618BF52EA4306D1D143
:1007400081EA030101F000414FF0000070BD50EA62
:10075000410606BF1046194652EA430619D094EAEC
:100760000C0F02D150EA013613D195EA0C0F05D1D6
:1007700052EA03361CBF104619460AD181EA03012A
:1007800001F0004141F0FE4141F470014FF00000E2
:1007900070BD41F0FE4141F4780170BD70B54FF07D
:1007A000FF0C4CF4E06C1CEA11541DBF1CEA1355FD
:1007B00094EA0C0F95EA0C0F00F0A7F8A4EB0504DF
:1007C00081EA030E52EA03354FEA013100F08880D6
:1007D0004FEA03334FF0805545EA131343EA12639F
:1007E0004FEA022245EA111545EA10654FEA002654
:1007F0000EF000419D4208BF964244F1FD0404F50D
:10080000407402D25B084FEA3202B61A65EB030568
:100810005B084FEA32024FF480104FF4002CB6EB25
:10082000020E75EB030E22BFB61A754640EA0C00A5
:100830005B084FEA3202B6EB020E75EB030E22BFE5
:10084000B61A754640EA5C005B084FEA3202B6EB26
:10085000020E75EB030E22BFB61A754640EA9C00E5
:100860005B084FEA3202B6EB020E75EB030E22BFB5
:10087000B61A754640EADC0055EA060E18D04FEA73
:10088000051545EA16754FEA06164FEAC30343EA13
:1008900052734FEAC2025FEA1C1CC0D111F4801FE0
:1008A0000BD141EA00014FF000004FF0004CB6E7D9
:1008B00011F4801F04BF01430020B4F1FD0C88BF78
:1008C000BCF5E06F3FF6AFAEB5EB030C04BFB6EB83
:1008D000020C5FEA500C50F1000041EB045170BD76
:1008E0000EF0004E4EEA113114EB5C04C2BFD4EBA3
:1008F0000C0541EA045170BD41F480114FF0000E27
:10090000013C90E645EA060E8DE60CEA135594EAA2
:100910000C0F08BF95EA0C0F3FF43BAF94EA0C0FA5
:100920000AD150EA01347FF434AF95EA0C0F7FF41A
:1009300025AF104619462CE795EA0C0F06D152EA6E
:1009400003353FF4FDAE1046194622E750EA410652
:1009500018BF52EA43067FF4C5AE50EA41047FF463
:100960000DAF52EA43057FF4EBAE12E74FF0FF3CC8
:1009700006E000BF4FF0010C02E000BF4FF0010C99
:100980004DF804CD4FEA410C7FEA6C5C4FEA430C12
:1009900018BF7FEA6C5C1BD001B050EA410C0CBF61
:1009A00052EA430C91EA030F02BF90EA020F0020C3
:1009B000704710F1000F91EA030F58BF994208BF2A
:1009C00090422CBFD8176FEAE37040F001007047E7
:1009D0004FEA410C7FEA6C5C02D150EA013C07D13E
:1009E0004FEA430C7FEA6C5CD6D152EA033CD3D089
:1009F0005DF8040B704700BF8446104662468C4683
:100A00001946634600E000BF01B5FFF7B7FF0028B5
:100A100048BF10F1000F01BD4DF808EDFFF7F4FFDE
:100A20000CBF012000205DF808FB00BF4DF808ED69
:100A3000FFF7EAFF34BF012000205DF808FB00BF8C
:100A40004DF808EDFFF7E0FF94BF012000205DF8AE
:100A500008FB00BF4DF808EDFFF7CEFF94BF012063
:100A600000205DF808FB00BF4DF808EDFFF7C4FF5C
:100A700034BF012000205DF808FB00BF4FEA4102AF
:100A800012F5001215D211D56FF47873B3EB6252E0
:100A900012D94FEAC12343F0004343EA505311F007
:100AA000004F23FA02F018BF404270474FF0000099
:100AB000704750EA013005D111F0004008BF6FF0D7
:100AC000004070474FF00000704700BF4A0011D24D
:100AD00012F5001211D20DD56FF47873B3EB625298
:100AE0000ED44FEAC12343F0004343EA505323FAA4
:100AF00002F070474FF00000704750EA013002D119
:100B00004FF0FF3070474FF00000704753B94AB9BB
:100B1000002908BF00281CBF4FF0FF314FF0FF3005
:100B200000F072B9ADF1080C6DE904CE00F006F8E2
:100B3000DDF804E0DDE9022304B070472DE9F04759
:100B4000089E04468846002B4BD18A42154667D939
:100B5000B2FA82F24AB1C2F1200701FA02F320FA96
:100B600007F7954047EA030894404FEA154E230CD7
:100B7000B8FBFEF71FFA85FC0EFB178843EA084313
:100B800007FB0CF1994209D9EB1807F1FF3080F00F
:100B90001B81994240F21881023F2B445B1AA4B298
:100BA000B3FBFEF00EFB103344EA034400FB0CFCE5
:100BB000A44509D92C1900F1FF3380F00781A44521
:100BC00040F2048102382C4440EA0740A4EB0C04B4
:100BD00000271EB1D4400023C6E900433946BDE8D2
:100BE000F0878B4209D9002E00F0EB800027C6E980
:100BF000000138463946BDE8F087B3FA83F7002F85
:100C000047D18B4202D3824200F2FA80841A61EB10
:100C1000030301209846002EE0D0C6E90048DDE736
:100C200002B9FFDEB2FA82F2002A40F08F80491B3F
:100C30004FEA154E1FFA85F80127B1FBFEFC230C85
:100C40000EFB1C1143EA014308FB0CF1994207D942
:100C5000EB180CF1FF3002D2994200F2CD808446AD
:100C6000591AA3B2B1FBFEF00EFB101443EA044480
:100C700008FB00F8A04507D92C1900F1FF3302D278
:100C8000A04500F2B6801846A4EB080440EA0C40E8
:100C90009FE7C7F1200CBB4022FA0CFE4EEA030E80
:100CA00001FA07F420FA0CF521FA0CF34FEA1E487A
:100CB0002543B3FBF8F92C0C08FB19331FFA8EFA05
:100CC00044EA034309FB0AF49C4202FA07F200FAE1
:100CD00007F10BD91EEB030309F1FF3080F0878089
:100CE0009C4240F28480A9F1020973441B1BADB2FF
:100CF000B3FBF8F008FB103345EA034400FB0AFAA3
:100D0000A24508D91EEB040400F1FF336BD2A245C3
:100D100069D90238744440EA0940A0FB0289A4EB77
:100D20000A044C45C2464B4654D351D0002E69D0DC
:100D3000B1EB0A0564EB030404FA0CFCFD40FC4033
:100D40004CEA0505C6E90054002747E7C2F1200335
:100D500020FA03F7954001FA02F021FA03F34FEA73
:100D6000154E3843010CB3FBFEF71FFA85F80EFB56
:100D7000173341EA034107FB08F38B4204FA02F4FC
:100D800007D9691807F1FF3C2FD28B422DD9023FBA
:100D90002944CB1A81B2B3FBFEF00EFB103341EABB
:100DA000034100FB08F38B4207D9691800F1FF3CAF
:100DB00017D28B4215D902382944C91A40EA07478D
:100DC0003BE73746304609E70746E7E61846FBE6C5
:100DD0004145ABD2B8EB020A69EB0E02013813466B
:100DE000A4E76046E9E7184695E76746D1E78146FC
:100DF0007CE702382C4447E7ACF1020C2B442FE788
:100E0000384608E73746E9E6704700BF00000000B3
:100E100001F0FF01102A2BDB10F0070F08D010F8AB
:100E2000013B013A8B422DD010F0070F42B3F6D1AF
:100E3000F0B441EA012141EA014122F007047FF0C8
:100E400000070023F0E80256083C85EA010586EA1F
:100E5000010685FA47F5A3FA87F586FA47F6A5FA5B
:100E600087F68EB9EED1F0BC01F0FF0102F0070267
:100E700032B110F8013B013A83EA010313B1F8D112
:100E80000020704701387047002D06BF35460338F3
:100E9000073815F0010F07D1013015F4807F02BF2C
:100EA000013015F4C03F0130F0BC0138704700BF7D
:100EB00010B5032000F042F80F2002F071FD10B1D0
:100EC0000124204610BD044600F0B8FBF9E70000FD
:100ED000024A136801331360704700BFCC1500202D
:100EE000014B1868704700BFCC15002038B5044688
:100EF000FFF7F6FF0546B4F1FF3F00D00134FFF7DE
:100F0000EFFF401BA042FAD338BD0000024A5368ED
:100F100043F0010353607047002004E0024A536825
:100F200043F0020353607047002004E0024A536814
:100F300043F0040353607047002004E0074AD3687D
:100F400023F4E0631B041B0C000200F4E060184370
:100F500040F0BF6040F40030D060704700ED00E02A
:100F600030B4174BDB68C3F30223C3F10704042C2E
:100F700028BF04241D1D062D18D9033B4FF0FF3553
:100F800005FA04F421EA0401994005FA03F322EA80
:100F90000303194300280BDB0901C9B200F16040CB
:100FA00000F5614080F8001330BC70470023E5E78E
:100FB00000F00F000901C9B2024B1954F4E700BF59
:100FC00000ED00E014ED00E0002807DB00F01F0258
:100FD000400901239340024A42F82030704700BF85
:100FE00000E100E00138B0F1807F0AD2064B586082
:100FF000064AF02182F823100020986007221A6028
:1010000070470120704700BF10E000E000ED00E0F5
:1010100000280BDB43094033054A52F8233000F027
:101020001F0023FA00F000F0010070470020704715
:1010300000E100E0042805D0054A136823F004030A
:1010400013607047024A136843F00403136070474B
:1010500010E000E0704708B5FFF7FCFF08BD08B5D9
:1010600090F82530DBB2022B03D00423C3630120A8
:1010700008BD0268136823F00E031360026813684A
:1010800023F001031360436C03F01C03016C012285
:1010900002FA03F34B6080F82520002380F8243007
:1010A000836B13B198470020E2E70020E0E70000DF
:1010B00010B4054C616941F0010161610260436057
:1010C0005DF8044B704700BF00200240084A536996
:1010D00043F48023536172B6402351F8042B40F847
:1010E000042B013B13F0FF03F7D162B6704700BF3A
:1010F00000200240094B5B69002B01DB0020704798
:10110000064B074A9A6002F188329A605B69002BAD
:1011100001DB002070470120704700BF0020024023
:1011200023016745034A536943F00043536100209C
:10113000704700BF0020024038B50446FFF7D0FEDC
:1011400005461E4B1B6913F4803F09D0B4F1FF3FE5
:10115000F7D0FFF7C5FE401BA042F2D3032027E0E3
:10116000164A136923F4705323F005031B041B0C68
:10117000926902F00042134311D011494A681A43A0
:101180004A6013F0404203D00C49886902438A61E7
:1011900033F040430DD0094A1361012008E0074BAA
:1011A0001B6913F0010F06D0044B01221A610020C5
:1011B00038BD0120FCE70020FAE700BF0020024014
:1011C000000000202DE9F041284C2478012C4AD061
:1011D000984617460D460446244B01221A704CF2DD
:1011E0005030FFF7A9FF064608BB204B00225A608B
:1011F0001F4B1B6813F4806F1FD01D4A136823F424
:1012000080631360194B02221A77D4B1631E012B3D
:101210001ED900244CF25030FFF78EFF064624B151
:10122000134A536923EA0404546100F05DF80F4B3C
:1012300000221A703046BDE8F0810C4B00221A776C
:10124000E3E73A4643462846FFF732FF0124E1E749
:1012500039462846FFF73AFF022C01D00024D9E78F
:101260004FF48024D6E70226E4E700BF0000002008
:101270000020024010F0010F04D0094A536943F0E6
:101280000403536110F0020F04D0054A536943F47C
:1012900000435361024A536943F4803353617047FA
:1012A0000020024011F0010F16D10E4A536943F499
:1012B000006353610B4B5A6922F4FF62C00000F4D3
:1012C000FF60104358615A6942F002025A615A693C
:1012D00042F480325A617047024A536923F4006332
:1012E0005361E7E700200240144B1B7FDBB2012B68
:1012F00001D0032B0CD1124A116841F40061116036
:10130000116821F400611160116841F400711160ED
:10131000023BDBB2012B03D9084B00221A7770473E
:10132000074B1A6842F480521A601A6822F48052FD
:101330001A601A6842F480621A60EDE7000000202B
:1013400000200240F8B53C4B1B78012B71D00E46B3
:101350000446394B01221A704CF25030FFF7ECFE74
:101360000746002860D1344B00225A60334B1B687B
:1013700013F4007F33D0314B1A6822F400721A60E4
:101380001B6813F4806F26D02C4A136823F4806303
:101390001360294B03221A772368012B31D04FF0B9
:1013A000FF333360A568A368E2681344AB4239D9C0
:1013B00061682846FFF776FF4CF25030FFF7BCFE1D
:1013C0001E4A536923F4FF6323F002035361074667
:1013D00038BB0135E7E7184B01221A77DCE7174BDA
:1013E0001B6813F4806F08D0144A136823F48063D9
:1013F0001360114B02221A77CEE70F4B00221A77A7
:10140000CAE76068FFF736FF4CF25030FFF794FEF2
:1014100007460A4A536923F4004323F00403536147
:1014200000E03560FFF760FF034B00221A7038467A
:10143000F8BD0227FBE700BF0000002000200240AB
:10144000F0B482B0002341E0D0F82CC02CEA040CA8
:10145000C6F3C0049C4044EA0C04C46286E006243F
:1014600000E00024B4403C430235664E46F8254077
:10147000654C2568D44304EA05064F6817F4803F9D
:1014800001D042EA0506604D2E606D6804EA05064B
:101490004F6817F4003F01D042EA05065A4D6E60CE
:1014A000AD6804EA05064F6817F4801F01D042EAD0
:1014B0000506554DAE60ED682C404E6816F4001FD1
:1014C00001D042EA0504504AD46001330A6832FA76
:1014D00003F400F0938001249C402240F5D04D6835
:1014E000022D01D0122D10D1DE08083650F826C08A
:1014F00003F00705AF000F25BD402CEA050C0D6970
:10150000BD4045EA0C0540F8265006685F000325FB
:10151000BD40ED4305EA060C4E6806F00306BE40EA
:1015200046EA0C0606604E6806F1FF3CBCF1010F6E
:1015300003D9112E01D0122E11D1866805EA060CAE
:10154000CE68BE4046EA0C068660466826EA040C71
:101550004E68C6F300169E4046EA0C0646604E688A
:1015600006F0030CBCF1030F3FF46EAFC4682540D6
:101570008C68BC402C43C4604C6814F0805FA4D0DD
:10158000224C256E45F001052566246E04F0010409
:101590000194019C9D08AE1C1A4C54F8267003F06F
:1015A0000304A6000F24B44027EA0407B0F1904FCB
:1015B0003FF457AF164CA04216D004F58064A04209
:1015C00014D004F58064A04212D004F58064A042D7
:1015D00010D004F58064A0420ED004F58064A042CF
:1015E0003FF43DAF07243DE701243BE7022439E700
:1015F000032437E7042435E7052433E702B0F0BCC1
:10160000704700BF0000014000040140001002408C
:10161000000400480AB98162704781617047000088
:1016200008B5054B5B69034200D108BD024B586108
:101630000DF092FEF9E700BF000401407047000082
:101640001E4A536823F00E0301680B4353601C4B82
:101650005A6822F480325A601A6822F480321A6082
:10166000DA6822F48032DA609A6822F480329A6072
:10167000436813F4803F04D0114A136843F4803365
:101680001360436813F4003F04D00D4A536843F4D9
:1016900080335360436813F0010F04D0084A936805
:1016A00043F480339360436813F0020F04D0044A7C
:1016B000D36843F48033D36000207047007000404B
:1016C00000040140024A536843F00103536070472D
:1016D0000070004010B50C46A0B90F4B5B6913F4C5
:1016E000007F0AD10D4A136923F004031361012C12
:1016F00010D040BF20BF20BF10BD00F02DF8002843
:10170000F0D0F9E7044B5B6913F4007FEAD100F0F5
:101710001BF8E7E730BFEFE70070004000ED00E0A6
:1017200008B5B0F5804F03D0084600F03DF808BD7D
:10173000084600F055F8FAE7024B186800F4C0605C
:10174000704700BF00700040024A136843F48043B2
:101750001360704700700040104A136823F4804300
:1017600013600F4B1A68322303FB02F30D4AA2FBEE
:1017700003239B0C013300E0013B084A526912F439
:10178000007F01D0002BF7D1044B5B6913F4007F7D
:1017900001D1002070470320704700BF0070004057
:1017A0008402002083DE1B430B4A136823F00703E7
:1017B00013600A4A136943F004031361012808D037
:1017C00040BF20BF20BF054A136923F00403136103
:1017D000704730BFF7E700BF0070004000ED00E049
:1017E0000C4A136823F0070343F0010313600A4A0D
:1017F000136943F004031361012808D040BF20BFE0
:1018000020BF054A136923F004031361704730BFFA
:10181000F7E700BF0070004000ED00E030B583B096
:101820000546204B9B6D13F0805F0BD0FFF784FFC4
:10183000B0F5007F17D0802D1FD82DD0702D2DD062
:1018400000211BE0174CA36D43F08053A365A36DEB
:1018500003F080530193019BFFF76EFFA36D23F00C
:101860008053A365E4E7802D03D9A02D03D902217D
:1018700004E0002102E0012100E003210A4A13688C
:1018800023F007030B431360136803F007038B4235
:1018900006D0012003B030BD0221EFE70121EDE7C2
:1018A0000020F7E70010024000200240314A936810
:1018B000D26802F0030213F00C030AD00C2B06D0FE
:1018C000042B1FD0082B20D00020014610E0012A55
:1018D000F6D1284A126812F0080F0CD1254AD2F826
:1018E0009420C2F30322244951F8221043B100206E
:1018F0000C2B0DD070471F4A1268C2F30312F2E797
:101900000846F5E71D480021F2E71D480021EFE7F2
:10191000184BDA6802F00302DB68C3F302130133E9
:10192000022A0AD0032A1AD0B1FBF3F3114AD06875
:10193000C0F3062000FB03F008E01048B0FBF3F30F
:101940000C4AD068C0F3062000FB03F0094BDB68AB
:10195000C3F3416301335B00B0FBF3F0CAE708480F
:10196000B0FBF3F3034AD068C0F3062000FB03F09A
:10197000ECE700BF00100240D03201080024F40060
:1019800000127A00002800F09082F0B583B004467F
:10199000AC4B9D6805F00C05DE6806F00306036895
:1019A00013F0100F5DD0E5B10C2D18D0A369002BFA
:1019B00000F0B780A34A136843F001031360FFF7F8
:1019C0008FFA07469F4B1B6813F0020F40F096807A
:1019D000FFF786FAC01B0228F4D9032371E2012E17
:1019E000E4D1984B1B6813F0020F03D0A369002BBE
:1019F00000F05E82206A934B1B6813F0080F5DD0E5
:101A0000904B1B6803F0F00398425ED9FFF706FF86
:101A1000002840F04F828B4B1A6842F008021A608F
:101A20001A6822F0F002216A0A431A605A6822F406
:101A30007F42E16942EA01225A60FFF737FF814B9A
:101A40009B68C3F30313804AD35C03F01F03D840A1
:101A50007E4B18600F2001F0A3FF0346002840F0E2
:101A60003082236813F0010F7AD0082D6FD00C2D2F
:101A70006BD06368B3F5803F00F09180B3F5A02F81
:101A800000F093806F4B1A6822F480321A601A6853
:101A900022F480221A606368002B00F09380FFF725
:101AA0001FFA0746674B1B6813F4003F58D1FFF736
:101AB00017FAC01B6428F5D9032302E2614BD3F85F
:101AC00094301B0903F0F0039EE75E4B1A6842F066
:101AD00008021A601A6822F0F002216A0A431A60AA
:101AE0005A6822F47F42E16942EA01225A60206A80
:101AF000FFF794FE0028A0D00123E2E1514B1A68C1
:101B000042F008021A601A6822F0F002216A0A43C1
:101B10001A605A6822F47F42E16942EA01225A605F
:101B20009FE7484A136823F001031360FFF7D8F9D1
:101B30000746444B1B6813F0020F92D0FFF7D0F911
:101B4000C01B0228F5D90323BBE1032E91D13D4BE5
:101B50001B6813F4003F03D06368002B00F0AC81D6
:101B6000236813F0020F4FD0042D3CD00C2D38D039
:101B7000E368002B75D0334A136843F48073136015
:101B8000FFF7AEF906462F4B1B6813F4806F5FD149
:101B9000FFF7A6F9801B0228F5D9032391E1294A12
:101BA000136843F48033136075E703F18043A3F5B2
:101BB0003C331A6842F480221A601A6842F4803278
:101BC0001A6068E7FFF78CF907461E4B1B6813F491
:101BD000003FC5D0FFF784F9C01B6428F5D9032363
:101BE0006FE1022EC4D1174B1B6813F4806F03D032
:101BF000E368002B00F06281124A536823F0F85327
:101C0000216943EA01635360236813F0080F53D03E
:101C10006369002B39D00B4AD2F8943043F00103AA
:101C2000C2F89430FFF75CF90646064BD3F89430BF
:101C300013F0020F40D1FFF753F9801B0228F4D9AB
:101C400003233EE10010024000330108840200201B
:101C50009E4A536823F0F853216943EA01635360B5
:101C6000D2E79A4A136823F480731360FFF738F9B8
:101C70000646964B1B6813F4806FC5D0FFF730F90A
:101C8000801B0228F5D903231BE1904AD2F8943037
:101C900023F00103C2F89430FFF722F906468B4B7C
:101CA000D3F8943013F0020F06D0FFF719F9801B18
:101CB0000228F4D9032304E1236813F0040F7AD037
:101CC000824B9B6D13F0805F0BD1804B9A6D42F07D
:101CD00080529A659B6D03F080530193019B01260E
:101CE00000E000267A4B1B6813F4807F26D0A3689F
:101CF000012B37D0052B3DD0744BD3F8902022F028
:101D00000102C3F89020D3F8902022F00402C3F817
:101D10009020A368002B3BD0FFF7E2F807466B4BFF
:101D2000D3F8903013F0020F44D1FFF7D9F8C01B5D
:101D300041F288339842F2D90323C2E0644A13681F
:101D400043F480731360FFF7CBF80746604B1B68C2
:101D500013F4807FCBD1FFF7C3F8C01B0228F5D95D
:101D60000323AEE0594AD2F8903043F00103C2F8A1
:101D70009030CEE7554BD3F8902042F00402C3F8E0
:101D80009020D3F8902042F00102C3F89020C0E7E1
:101D9000FFF7A6F807464D4BD3F8903013F0020F2B
:101DA00008D0FFF79DF8C01B41F288339842F2D962
:101DB000032386E066BBA36A002B00F081800C2D14
:101DC00000F08280022B29D0404B1A6822F08072EA
:101DD0001A601B6813F0205F04D13C4AD36823F0DB
:101DE0000303D360394AD36823F0887323F4803324
:101DF000D360FFF775F80446344B1B6813F0007F7F
:101E000051D0FFF76DF8001B0228F5D9032358E0E5
:101E10002E4A936D23F080539365CCE72B4A1368C9
:101E200023F080731360FFF75BF80546274B1B68B0
:101E300013F0007F06D0FFF753F8401B0228F5D9B6
:101E400003233EE0236B5A1E636B1B0243EA02131B
:101E5000A26B120943EA4243E26A1343E26B52085F
:101E6000013A43EA4253226C5208013A43EA426380
:101E7000164AD360136843F080731360D36843F04D
:101E80008073D360FFF72CF80446104B1B6813F0E7
:101E9000007F06D1FFF724F8001B0228F5D90323A1
:101EA0000FE000230DE000230BE0012318467047EC
:101EB000012306E0012304E0012302E0012300E006
:101EC0000023184603B0F0BD0123FAE700100240DA
:101ED00000700040002800F09A8070B504464E4B18
:101EE0001B6803F007038B420CD24B4A136823F0A4
:101EF00007030B431360136803F007038B4201D001
:101F0000012070BD0D46236813F0010F39D06368BE
:101F1000032B09D0022B26D063BB404A126812F073
:101F2000020F06D10120ECE73C4A126812F0007F54
:101F30006FD03A498A6822F0030213438B60FEF7A0
:101F4000CFFF0646354B9B6803F00C036268B3EB8A
:101F5000820F16D0FEF7C4FF801B41F288339842EF
:101F6000F0D90320CDE72D4A126812F4003FE0D1EA
:101F70000120C6E7294A126812F4806FD9D10120E6
:101F8000BFE7236813F0020F06D0244A936823F0BA
:101F9000F003A1680B4393601F4B1B6803F007031A
:101FA000AB420CD91C4A136823F007032B43136080
:101FB000136803F00703AB4201D00120A1E72368B7
:101FC00013F0040F06D0154A936823F4E063E16828
:101FD0000B439360236813F0080F07D00F4A9368F0
:101FE00023F46053216943EAC1039360FFF75EFC69
:101FF0000A4B9B68C3F30313094AD35C03F01F0326
:10200000D840084B18600F2001F0CAFC79E7012086
:102010007047012075E700BF002002400010024019
:102020000033010884020020014B1868704700BF8C
:102030008402002008B5FFF7F7FF054B9B68C3F348
:102040000223044AD35C03F01F03D84008BD00BF3D
:10205000001002401033010808B5FFF7E5FF054BFB
:102060009B68C3F3C223044AD35C03F01F03D84028
:1020700008BD00BF00100240103301081F23036099
:10208000434B1B6813F4802F5AD04FF4A0234360B6
:102090003F4B1B6813F0010F5ED0012383613C4B63
:1020A0005A68C2F30722C2611A6802F0F0020262A3
:1020B0001B6813F4807F52D04FF48073C360344A9E
:1020C0005368C3F304630361D2F8903013F0040F34
:1020D00048D0052383602E4BD3F8943013F0010FC2
:1020E0004CD0012343610023436203F1804303F595
:1020F00004331B6813F0807F43D002238362244A99
:10210000D36803F00303C362D368C3F3021301333C
:102110000363D368C3F306234363D368C3F3415314
:1021200001335B00C363D368C3F3416301335B00D6
:102130000364D36813F4003F26D1072383637047F9
:10214000134B1B6813F4803F03D04FF4803343607C
:102150009EE7002343609BE7002383619FE7002302
:10216000C360ACE70A4BD3F8903013F0010F02D0F4
:1021700001238360AFE700238360ACE70023436162
:10218000B1E701238362BAE711238363704700BF7D
:10219000001002400F2303600B4B9A6802F0030209
:1021A00042609A6802F0F00282609A6802F4E0628B
:1021B000C2609B68DB0803F4E0630361034B1B68A8
:1021C00003F007030B60704700100240002002403C
:1021D000F8B55A4BDB6813F0030F18D0574BDB6888
:1021E00003F003030268934202D001252846F8BD9C
:1021F000002A00F0A080514BDB68C3F302130133C7
:102200004268934201D00125F0E700251AE00368F7
:10221000022B59D0032B5ED0012B01D001250FE0FA
:10222000464A126812F0020F61D0444DEA6822F06B
:1022300073024468013C43EA04131343EB60002536
:10224000002DD3D10F4604463C4A136823F0806327
:102250001360FEF745FE0646384B1B6813F0006F0F
:1022600005D0FEF73DFE801B0228F5D90325002D81
:10227000BCD1002F3DD131490B6923F41F3323F426
:102280004073A068E2681209520442EA0022134334
:102290000B612A4A136843F080631360FEF720FE47
:1022A0000646264B1B6813F0006F05D1FEF718FE9B
:1022B000801B0228F5D90325002D97D11F4A1369E9
:1022C000A1690B43136191E71C4A126812F4806FF5
:1022D000ABD10125B4E7194A126812F4003FA4D12A
:1022E000164A126812F4802F9FD10125A8E7012514
:1022F000A6E7012F0FD01148026922F0C06222F434
:10230000FE42A16863695B08013B5B0643EA012367
:1023100013430361BDE70948026922F4C00222F4B5
:10232000FE42A16823695B08013B5B0543EA012388
:1023300013430361ADE7012558E700BF00100240D9
:10234000F8B5514BDB6813F0030F18D04E4BDB6828
:1023500003F003030268934202D001252846F8BD2A
:10236000002A00F08E80484BDB68C3F30213013370
:102370004268934201D00125F0E700251AE0036886
:10238000022B59D0032B5ED0012B01D001250FE089
:102390003D4A126812F0020F61D03B4DEA6822F00C
:1023A00073024468013C43EA04131343EB600025C5
:1023B000002DD3D10F460446334A136823F08053CF
:1023C0001360FEF78DFD06462F4B1B6813F0005F70
:1023D00005D0FEF785FD801B0228F5D90325002DC9
:1023E000BCD1002F3DD128494B6923F41F3323F47E
:1023F0004073A068E2681209520442EA00221343C3
:102400004B61214A136843F080531360FEF768FD67
:1024100006461D4B1B6813F0005F05D1FEF760FDFB
:10242000801B0228F5D90325002D97D1164A536940
:1024300061690B43536191E7134A126812F4806F8C
:10244000ABD10125B4E7104A126812F4003FA4D1C1
:102450000D4A126812F4802F9FD10125A8E70125AB
:10246000A6E70948426922F0C06222F4FE42A16850
:1024700023695B08013B5B0643EA01231343436185
:10248000BFE701256AE700BF001002402DE9F041D7
:1024900082B00446036813F4006F2FD0436EB3F587
:1024A000800F25D008D9B3F5000F10D0B3F5400F39
:1024B00040F09980002610E0002B40F0948000212D
:1024C0000430FFF785FE06463EB1374618E05E4A07
:1024D000D36843F48033D36000265B4AD2F8883057
:1024E00023F44003616E0B43C2F88830002707E0F5
:1024F00000212030FFF724FF0646E5E700273E468F
:10250000236813F4805F15D0A36EB3F1807F7AD077
:102510006CD9B3F1007F70D0B3F1407F7AD1002E37
:102520007BD1494AD2F8883023F04073A16E0B4327
:10253000C2F88830236813F4003F00F08E80424BCD
:102540009B6D13F0805F6AD13F4B9A6D42F08052D1
:102550009A659B6D03F080530193019B4FF0010836
:102560003A4A136843F480731360FEF7B9FC0546DA
:10257000364B1B6813F4807F05D1FEF7B1FC401B7E
:102580000228F5D90326002E62D12F4BD3F89030C4
:1025900013F4407316D0D4F884209A4212D02A4AF9
:1025A000D2F8903023F44073D2F8901041F4803187
:1025B000C2F89010D2F8901021F48031C2F8901037
:1025C000C2F8903013F0010F2CD1002E40F043815F
:1025D0001D4AD2F8903023F44073D4F884100B4392
:1025E000C2F8903035E001273E4689E793B90021D3
:1025F000201DFFF7EDFD064691E7134AD36843F42B
:102600008033D3608BE7002104F12000FFF798FEB0
:10261000064684E701273E468CE737468AE74FF0B7
:1026200000089DE7FEF75CFC0546074BD3F89030A9
:1026300013F0020FC9D1FEF753FC401B41F288335F
:102640009842F2D90326C0E7001002400070004013
:102650003746B8F1000F40F00081236813F0010FF6
:1026600008D09D4AD2F8883023F00303A16B0B43B6
:10267000C2F88830236813F0020F08D0964AD2F8C7
:10268000883023F00C03E16B0B43C2F888302368D9
:1026900013F0040F08D0904AD2F8883023F03003AA
:1026A000216C0B43C2F88830236813F0080F08D060
:1026B000894AD2F8883023F0C003616C0B43C2F81A
:1026C0008830236813F0100F08D0834AD2F888307E
:1026D00023F44073A16C0B43C2F88830236813F0D5
:1026E000200F08D07C4AD2F8883023F44063E16C94
:1026F0000B43C2F88830236813F4007F08D0764A71
:10270000D2F8883023F44023E16D0B43C2F88830BF
:10271000236813F4806F08D06F4AD2F8883023F40E
:102720004013216E0B43C2F88830236813F0400F2A
:1027300008D0694AD2F8883023F44053216D0B4306
:10274000C2F88830236813F0800F08D0624AD2F8AC
:10275000883023F44043616D0B43C2F8883023680E
:1027600013F4807F08D05C4AD2F8883023F44033D9
:10277000A16D0B43C2F88830236813F4005F0FD0BB
:10278000554AD2F8883023F04063E16E0B43C2F81B
:102790008830E36EB3F1006F65D0B3F1806F67D01E
:1027A000236813F4002F0FD04B4AD2F8883023F05F
:1027B0004063216F0B43C2F88830236FB3F1006F81
:1027C0005ED0B3F1806F60D0236813F4802F0FD0F8
:1027D000414AD2F8883023F04063616F0B43C2F85E
:1027E0008830636FB3F1006F57D0B3F1806F59D069
:1027F000236813F4804F0FD0374AD2F8883023F083
:102800004053A16F0B43C2F88830A36FB3F1805FD0
:1028100050D0B3F1005F55D0236813F4004F08D0B7
:102820002D4AD2F8883023F08043E16F0B43C2F881
:102830008830236813F4803F09D0274AD2F88830C3
:1028400023F00043D4F880100B43C2F88830384698
:1028500002B0BDE8F0813746FBE61F4A936D23F0D6
:1028600080539365F9E6D36843F48013D36097E708
:102870000121201DFFF7ACFC002891D007468FE70F
:10288000D36843F48013D3609EE70121201DFFF736
:102890009FFC002898D0074696E7D36843F480133E
:1028A000D360A5E70121201DFFF792FC00289FD0EF
:1028B00007469DE70221201DFFF78AFC0028ABD0C8
:1028C0000746A9E7022104F12000FFF739FD00289F
:1028D000A2D00746A0E700BF00100240704738B5FD
:1028E00090F82030012B5DD00446012380F8203081
:1028F000022380F821300368CA225A6203685322F7
:102900005A62B1F5807F21D00268936823F4007386
:1029100093600268936823F400539360FEF7E0FA33
:1029200005462368DB6813F0020F31D1FEF7D8FAB1
:10293000401BB0F57A7FF4D92368FF225A62032046
:1029400084F82100002384F820302AE0026893688C
:1029500023F4807393600268936823F48053936038
:10296000FEF7BEFA05462368DB6813F0010F0FD1AE
:10297000FEF7B6FA401BB0F57A7FF4D92368FF2240
:102980005A62032084F82100002384F8203008E0F4
:102990002368FF225A62012384F82130002084F842
:1029A000200038BD0220FCE738B504460268D36831
:1029B00023F0A003D360FEF793FA05462368DB6893
:1029C00013F0200F07D1FEF78BFA401BB0F57A7F8A
:1029D000F4D9032000E0002038BD38B50368DA6878
:1029E00012F0400F01D0002038BD04464FF0FF32F6
:1029F000DA60FEF775FA05462368DB6813F0400FCE
:102A000007D1FEF76DFA401BB0F57A7FF4D90320A9
:102A1000EAE70020E8E738B5002864D0044690F8DB
:102A20002130002B44D0022384F821302368CA22AD
:102A30005A62236853225A622046FFF7CEFF0546AA
:102A400000283AD12268936823F4E00323F040037E
:102A5000936021688A68636820690343A06903431F
:102A600013438B602368E2681A6122681369A168C6
:102A700043EA014313612268D36823F08003D360E3
:102A800023689B6813F0200F20D02268D36C23F0BA
:102A90000303D3642168CB6CE2696069024313438A
:102AA000CB642368FF225A62012384F821300BE0B3
:102AB00080F82030FFF712FFB5E72368FF225A6243
:102AC000042384F821300125284638BD2046FFF72D
:102AD0006BFF0028D9D02368FF225A62042384F8B0
:102AE00021300125F0E70125EEE7002302E0013364
:102AF0000A38C0B20928FAD81B01DBB21843704764
:102B000070B590F82030012B6ED0012380F8203072
:102B1000022380F821303AB94B7813F0100F03D01C
:102B200003F0EF030A334B700E460446002A34D1FB
:102B3000C878FFF7DAFF05047078FFF7D6FF45EA9B
:102B40000025B078FFF7D1FF2843357840EA4535B6
:102B50002368CA225A62236853225A622046FFF72A
:102B60003CFF064620BB236825F07F4525F0C005C5
:102B70005D602268D36823F08003D36023689B687C
:102B800013F0200F20D02368FF225A62012384F81B
:102B90002130002384F8203014E0CD7848780002FA
:102BA00040EA05408D7828430D7840EA4535CFE767
:102BB0002368FF225A62042384F82130002384F81A
:102BC00020300126304670BD2046FFF7EDFE00287C
:102BD000D9D02368FF225A62042384F821300023CD
:102BE00084F820300126EDE70226EBE7F8B590F8EF
:102BF0002030012B7FD015460E460446012380F875
:102C00002030022380F821300368CA225A62036808
:102C100053225A62FFF7E1FE074600283ED1002DFD
:102C200047D123689B6813F0400F01D10023F37054
:102C30003078FFF75AFF05047078FFF756FF45EA32
:102C40000025B078FFF751FF2843F37840EA83501E
:102C5000236800F07F3020F0FE40186022689368FF
:102C600023F48023936021688B68F2683069024303
:102C700013438B602268D36823F08003D3602368FA
:102C80009B6813F0200F26D02368FF225A6201238D
:102C900084F82130002384F820302DE02368FF22BF
:102CA0005A62042384F82130002384F8203001275D
:102CB00022E023689B6813F0400F01D10023F370DA
:102CC00033787078000240EA0340B3781843F37811
:102CD00040EA8350BCE72046FFF766FE0028D3D0C9
:102CE0002368FF225A62042384F82130002384F8E9
:102CF0002030012700E002273846F8BDF8B590F8EB
:102D00002030012B00F0C6800D460446012380F8D8
:102D10002030022380F82130002A50D103689B68BC
:102D200013F0400F01D10023CB70EE692878FFF734
:102D3000DCFE07046878FFF7D8FE47EA0027A8788A
:102D4000FFF7D3FE0743E87847EA805795F820005D
:102D5000FFF7CBFE47EA006006436B691E436F68CE
:102D6000AB691F432368CA225A62236853225A62FE
:102D70006B6AB3F5807F3CD02268936823F40073BC
:102D800093602268D368DBB263F42073D360FEF7EC
:102D9000A7F805462368DA6812F0020F5AD1FEF749
:102DA0009FF8401BB0F57A7FF4D92368FF225A625E
:102DB000032084F82100002384F8203069E00368B0
:102DC0009B6813F0400F01D10023CB70EA6929788A
:102DD0006B781B0243EA0143A9780B43E97843EA85
:102DE000815395F8201043EA016313436E691E4333
:102DF000B5E72268936823F4807393602268D368F0
:102E0000DBB263F4C073D360FEF76AF8054623684B
:102E1000DA6812F0010F0FD1FEF762F8401BB0F52F
:102E20007A7FF4D92368FF225A62032084F82100B4
:102E3000002384F820302CE0DE6123685F64226880
:102E4000936843F4807393602268936843F48053DB
:102E500093600CE01E6223689F642268936843F4C9
:102E6000007393602268936843F4005393600A4BA5
:102E70001A6842F480221A609A6842F480229A60AA
:102E80002368FF225A62012384F82130002084F84D
:102E90002000F8BD0220FCE700040140030903EB19
:102EA00083035A0000F00F001044C0B2704770B5A1
:102EB00003689B6A4B6003681B69C3F30E038B6056
:102EC00003681B6803F07F3323F0FE43C3F3054020
:102ED0000870C3F306264E7003F07F058D709B0DBE
:102EE000CB705AB90C46FFF7D9FF20703046FFF778
:102EF000D5FF60702846FFF7D1FFA070002070BD9D
:102F000070B503685B6823F07F4323F0C003180C9F
:102F1000C870C3F304264E7003F03F058D70C3F3F1
:102F200042330B705AB90C46FFF7B8FFE0703046D9
:102F3000FFF7B4FF60702846FFF7B0FFA0700020D5
:102F400070BD10B5B2F5807F34D04FF400724A6284
:102F50000068026A806CC0F30E00C2F305440C7076
:102F6000C2F306244C7002F07F048C70C2F38054CC
:102F7000CC704860C2F3056081F8200002F0804008
:102F8000C86102F080324A6193B90C460878FFF7B5
:102F900085FF20706078FFF781FF6070A078FFF7F1
:102FA0007DFFA07094F82000FFF778FF84F82000E0
:102FB000002010BD4A620068C269406CC0F30E0078
:102FC000C2F305440C70C2F306244C7002F07F0477
:102FD0008C70C2F38054CC704860C2F3056081F8F5
:102FE000200002F08040C86102F080324A61CBE7E5
:102FF00090F82030012B1AD0012280F820200223E3
:1030000080F821300368CA2159620368532159624C
:1030100001688B6843F020038B600368FF215962CD
:1030200080F82120002380F82030184670470220C5
:10303000704782B0036850330193019B03EB810119
:103040000191019B1A6002B070470368503353F836
:1030500021007047F8B505460F4616461C462B68FA
:103060009B6837EA03030CBF01230023B34237D028
:10307000B4F1FF3FF3D0FDF733FF069BC01AA04227
:1030800001D2002CEBD12A68536823F0E00353608F
:103090006B68B3F5827F0BD0AB6AB3F5005F14D0D9
:1030A000012385F85D30002385F85C30032018E0AB
:1030B000AB68B3F5004F02D0B3F5806FECD12A684E
:1030C000136823F040031360E6E72A68136823F4CB
:1030D000005313602A68136843F400531360DFE75A
:1030E0000020F8BDF8B507460C4615461E4602E01E
:1030F000B6F1FF3F0BD13A6893682340AB423BD017
:10310000B4F5C06FF4D1002DF2D1137BF0E7FDF7D9
:10311000E7FE069BC01AB04201D2002EEBD13A68FE
:10312000536823F0E00353607B68B3F5827F0BD0D4
:10313000BB6AB3F5005F14D0012387F85D3000232C
:1031400087F85C30032018E0BB68B3F5004F02D06D
:10315000B3F5806FECD13A68136823F04003136035
:10316000E6E73A68136823F4005313603A6813687B
:1031700043F400531360DFE70020F8BD70B582B060
:1031800004460D46164600920B4600224FF4C051ED
:10319000FFF7A8FFB8B900962B46002280212046F1
:1031A000FFF758FFB8B900962B4600224FF4C061D4
:1031B0002046FFF797FF034650B1236E43F02003EC
:1031C0002366032304E0236E43F0200323660323D6
:1031D000184602B070BD236E43F02003236603231C
:1031E000F6E77047002862D010B5044690F85D30CD
:1031F000002B47D0022384F85D302268136823F047
:1032000040031360E368B3F5E06F40D90022B3F5E3
:10321000706F04D0B3F5E06F01D00021A162216B83
:1032200021B9B3F5E06F35D9022323636368A16840
:103230000B4321690B4361690B43A16901F40071E0
:103240000B43E1690B43216A0B43A06A21680343E6
:103250000B60236B022B20D0638B03F00403616AA5
:103260000B43616B0B43E1680B43216813434B60D5
:10327000A36AB3F5005F16D000202066012384F80E
:103280005D3010BD80F85C30FFF7ABFFB2E74FF464
:103290008052BCE701232363C8E721680B6843F42D
:1032A00000630B60D8E72368E26A1A61E4E7012053
:1032B0007047704790B110B50446022380F85D3026
:1032C0000268136823F040031360FFF7F2FF002049
:1032D000206684F85D0084F85C0010BD0120704712
:1032E0002DE9F04F83B0DDF8308090F85C40012C80
:1032F00000F0E6811D4617460E460446012380F87D
:103300005C30FDF7EDFD814694F85D30DBB261681D
:103310002268D2F800A0D2F804B0012B15D0B1F584
:10332000827F0AD00225012384F85D30002384F8CF
:103330005C30284603B0BDE8F08FA168002940F05A
:10334000B181042B01D00225EDE7002E00F0AC8105
:10335000002F00F0AB81002D00F0AA8194F85D30C1
:10336000DBB2042B02D0052384F85D3000232366F2
:103370002764A4F84650A4F84450A663E587A587BF
:10338000E3642365A36AB3F5005F28D0E368B3F56F
:10339000E06F01D8012D2CD92268536823F48053A3
:1033A000536023681A6812F0400F03D11A6842F084
:1033B00040021A60E368B3F5E06F7BD963680BB134
:1033C000012D0AD1A26B23681288DA60A36B023345
:1033D000A363E38F013B9BB2E387012542E01368BF
:1033E00023F4005313602268136843F400531360FE
:1033F000CCE72268536843F480535360D1E71AF056
:10340000040F07D11BF0080F04D02268136843F49F
:10341000007313602268136843F48053136000251F
:1034200000E0002523689A6812F0010F10D0B4F86C
:10343000462092B262B1DA68236C1A80236C0233A0
:103440002364B4F84630013B9BB2A4F84630012512
:10345000FDF746FDA0EB0900404503D3B8F1FF3F5F
:1034600040F02881E38F9BB22BB9B4F846309BB271
:10347000002B00F0CB8023689A6812F0020FD1D0A5
:10348000E28F92B2002ACDD0002DCBD0A26B128851
:10349000DA60A36B0233A363E38F013B9BB2E38744
:1034A000E38F9BB2002BBCD1A36AB3F5005FA6D01B
:1034B0000025B7E763680BB1012D0ED1E38F9BB2F6
:1034C000012B0CD9A26B23681288DA60A36B02333C
:1034D000A363E38F023B9BB2E387012563E0A26B0A
:1034E000236812781A73A36B0133A363E38F013B44
:1034F0009BB2E387F1E7E28F92B2012A12D9A26B65
:103500001288DA60A36B0233A363E38F023B9BB2A2
:10351000E387E38F9BB213BBA36AB3F5005F0CD0C4
:10352000002551E0A26B12781A73A36B0133A363D9
:10353000E38F013B9BB2E387EBE71AF0040F07D15F
:103540001BF0080F04D02268136843F40073136063
:103550002268136843F480531360002534E000258B
:1035600032E02268536843F48053536001250CE035
:10357000226C1B7B1370236C01332364B4F8463038
:10358000013B9BB2A4F846300125FDF7A9FCA0EB56
:103590000900404503D3B8F1FF3F40F08D80B8F1FA
:1035A000000F00F08B80E38F9BB21BB9B4F846305C
:1035B0009BB25BB323689A6812F0020F04D0E28FCB
:1035C00092B20AB1002D96D123689A6812F0010FC9
:1035D000DBD0B4F8462092B2002AD6D0B4F8462008
:1035E00092B2012AC4D9DA68236C1A80236C0233A0
:1035F0002364B4F84630023B9BB2A4F84630B4F8DA
:1036000046309BB2012BACD90125BEE7A36AB3F5C6
:10361000005F18D023689A6812F0100F40D0226E15
:1036200042F0020222664FF6EF729A6001254A4686
:1036300041462046FFF7A2FD00283FF474AE202348
:10364000236601256FE6CDF800904346012211461E
:103650002046FFF7FFFC28B1236E43F002032366E8
:10366000032560E6E368B3F5706F13D023681B7B16
:10367000236B022BCED1CDF8009043460122114698
:103680002046FFF7E7FC40B1236E43F002032366B8
:10369000032548E62368DB68BCE723681B7BB9E7A2
:1036A0000025C4E702253EE601253CE601253AE671
:1036B000012538E6032536E6032534E6032532E600
:1036C000022536E6704700000268D36843F0010324
:1036D000D36002689168084B0B40062B09D09168B3
:1036E000054B0B40B3F5803F03D0136843F0010353
:1036F00013600020704700BF07000100704770474B
:103700007047704710B5044603681A6912F0020F3B
:1037100011D0DA6812F0020F0DD06FF002021A61B8
:103720000123037703689B6913F0030F79D0FFF738
:10373000E6FF0023237723681A6912F0040F12D0E2
:10374000DA6812F0040F0ED06FF004021A6102233F
:10375000237723689B6913F4407F68D02046FFF7E6
:10376000CEFF0023237723681A6912F0080F12D0C6
:10377000DA6812F0080F0ED06FF008021A61042305
:1037800023772368DB6913F0030F57D02046FFF738
:10379000B6FF0023237723681A6912F0100F12D0A6
:1037A000DA6812F0100F0ED06FF010021A610823C1
:1037B00023772368DB6913F4407F46D02046FFF768
:1037C0009EFF0023237723681A6912F0010F03D0AC
:1037D000DA6812F0010F3FD123681A6912F0800FE6
:1037E00003D0DA6812F0800F3DD123681A6912F411
:1037F000807F03D0DA6812F0800F3BD123681A690A
:1038000012F0400F03D0DA6812F0400F39D123686C
:103810001A6912F0200F03D0DA6812F0200F37D1A6
:1038200010BDFFF76BFF2046FFF76AFF81E72046D8
:10383000FFF764FF2046FFF763FF92E72046FFF79C
:103840005DFF2046FFF75CFFA3E72046FFF756FF2A
:103850002046FFF755FFB4E76FF001021A612046DA
:1038600000F0E2F8B8E76FF080021A61204600F03D
:1038700095F8BAE76FF480721A61204600F08FF86D
:10388000BCE76FF040021A612046FFF73AFFBEE73F
:103890006FF020021A61204600F07FF8C0E70000B8
:1038A0000368304A904212D0B0F1804F0FD0A2F599
:1038B000943290420BD002F58062904207D002F51C
:1038C0008062904203D002F59432904203D123F0FB
:1038D00070034A681343234A90421ED0B0F1804FD0
:1038E0001BD0A2F59432904217D002F5806290422C
:1038F00013D002F5806290420FD002F594329042CC
:103900000BD002F54062904207D002F580629042EF
:1039100003D002F58062904203D123F44073CA6859
:10392000134323F080034A69134303608B68C36227
:103930000B6883620B4B98420FD003F500639842EB
:103940000BD003F54063984207D003F5806398429B
:1039500003D003F58063984201D10B69036301230F
:1039600043617047002C0140A8B110B5044690F89F
:103970003D305BB1022384F83D30211D2068FFF704
:103980008FFF012384F83D30002010BD80F83C30CB
:10399000FFF798FEEEE701207047704770477047C9
:1039A00000B589B0002201463620FDF7D9FA36204D
:1039B000FDF70AFB184B9A6D42F010029A659B6D59
:1039C00003F010030193019B02A903A8FEF7E2FB99
:1039D000069BC3B9FEF72EFB104BA3FB00239B0CE9
:1039E000013B0F480F4A026040F2E732C260436079
:1039F0000023036183608361FFF7B6FF38B10120C4
:103A000009B05DF804FBFEF715FB4000E4E704484D
:103A1000FFF75AFEF4E700BF0010024083DE1B43AD
:103A2000D01500200010004008B5FDF751FA08BD80
:103A300008B50248FFF766FE08BD00BFD01500209C
:103A40000268136823F4907313600268936823F08C
:103A500001039360202380F87230002303667047CF
:103A600090F87130DBB2212B00D07047B0F85230A3
:103A70009BB263B1C36C5A1CC26402681B78138585
:103A8000B0F85230013B9BB2A0F85230EDE702682B
:103A9000136823F0800313600268136843F0400347
:103AA0001360704790F87130DBB2212B00D0704763
:103AB000B0F852309BB27BB1C36C02681B88C3F371
:103AC00008031385C36C0233C364B0F85230013B62
:103AD0009BB2A0F85230EAE70268136823F0800333
:103AE00013600268136843F0400313607047704727
:103AF00090F87130DBB2202B29D151B35AB390F832
:103B00007030012B29D0012380F87030C164A0F8F7
:103B10005020A0F85220002343664367212380F8F9
:103B200071308368B3F5805F0BD00D4B4366002383
:103B300080F8703001680A6842F080020A60184616
:103B400070470369002BF0D1064B4366EFE7022074
:103B5000704701207047012070470220704700BF66
:103B6000613A0008A53A000890F87230DBB2202BC9
:103B700058D1002958D0002A58D090F87030012B25
:103B800056D0012380F870304165A0F85820A0F885
:103B90005A20002303668368B3F5805F06D0A3B97B
:103BA000036973B9FF23A0F85C3011E0036923B9FE
:103BB00040F2FF13A0F85C300AE0FF23A0F85C306D
:103BC00006E07F23A0F85C3002E0B3F1805F19D0FB
:103BD00000234367222380F872300268936843F021
:103BE000010393608368B3F5805F15D0114B0366C2
:103BF000002380F8703001680A6842F490720A600D
:103C00001846704703691BB97F23A0F85C30DFE7D3
:103C10003F23A0F85C30DBE70369002BE6D1064BBD
:103C20000366E5E7022070470120704701207047D6
:103C300002207047593C0008B93C000808B50168EB
:103C40000A6822F040020A60202280F871200022D7
:103C500042660EF05BF908BDB0F85C2090F8723057
:103C6000DBB2222B05D00268138B43F008031383C9
:103C7000704710B50368998CD2B2436D5C1C4465E3
:103C80000A401A70B0F85A30013B9BB2A0F85A3083
:103C900003B110BD0268136823F4907313600268C7
:103CA000936823F001039360202380F8723000238F
:103CB00003660EF049F9ECE708B5B0F85C2090F81F
:103CC0007230DBB2222B05D00268138B43F008035D
:103CD000138308BD0368998C436D0A401A80436DB5
:103CE00002334365B0F85A30013B9BB2A0F85A301A
:103CF000002BEED10268136823F4907313600268FE
:103D0000936823F001039360202380F8723000232E
:103D100003660EF019F9DCE738B504460268D3698A
:103D20001168906813F00F050CD113F0200F09D023
:103D300011F0200F06D0236E002B00F09380204658
:103D400098478FE0002D6FD010F0010502D111F4DB
:103D5000907F69D013F0010F07D011F4807F04D059
:103D600001201062626F0243626713F0020F07D0F6
:103D700035B1226802201062626F42F0040262676D
:103D800013F0040F07D035B1226804201062626F6F
:103D900042F00202626713F0080F09D011F0200F01
:103DA00000D12DB1226808201062626F0243626761
:103DB000626F002A56D013F0200F06D011F0200FAA
:103DC00003D0236E0BB120469847636F13F0080FA2
:103DD00004D123689B6813F0400F1FD02046FFF7E3
:103DE0002FFE23689A6812F0400F13D09A6822F0D1
:103DF00040029A60E36E4BB11D4A9A63E06EFDF794
:103E00002EF978B3E06E836B98472BE020460EF0D6
:103E1000B9F827E020460EF0B5F823E020460EF072
:103E2000B1F8002363671DE013F4801F02D010F483
:103E3000800F0AD113F0800F0ED011F0800F0BD03D
:103E4000636E7BB1204698470CE04FF480131362F9
:103E5000204600F02CFB05E013F0400F02D011F0DB
:103E6000400F00D138BD2046FFF7E8FEFAE700BF5B
:103E7000753E000808B5806A0023A0F85A30A0F803
:103E800052300EF07FF808BD2DE9F0480446016875
:103E900083680269134342691343C2691343086884
:103EA000A24A024013430B602268536823F4405334
:103EB000E1680B435360A16922689D4B9A4201D08F
:103EC000236A1943936823F430630B439360236898
:103ED000984A934227D0984A934238D0974A9342BF
:103EE0004ED0974A934261D0964A934274D0904AFA
:103EF000934200F08A8010258D4A934200F0AA80F8
:103F0000E369B3F5004F00F03581082D00F2BF8161
:103F1000DFE815F07F0195019F01BD01AA01BD01F8
:103F2000BD01BD01B40102F55842D2F8882002F06B
:103F30000302032A09D8DFE802F002048106012502
:103F4000DAE70425D8E70825D6E71025D4E702F5F7
:103F5000E632D2F8882002F00C020C2A0ED8DFE8F4
:103F600002F0070D0D0D090D0D0D6F0D0D0D0B0060
:103F70000025C1E70425BFE70825BDE71025BBE7FD
:103F800002F5E432D2F8882002F03002102A09D07B
:103F900005D9202A56D0302A06D10825ACE71AB90F
:103FA0000025A9E70425A7E71025A5E702F5E232D9
:103FB000D2F8882002F0C002402A09D005D9802A10
:103FC00042D0C02A06D1082596E71AB9002593E702
:103FD000042591E710258FE702F5E032D2F888201A
:103FE00002F44072B2F5807F0BD007D9B2F5007FA2
:103FF0002CD0B2F5407F06D108257DE71AB90025FF
:104000007AE7042578E7102576E702F5C832D2F87A
:10401000882002F44062B2F5806F0BD007D9B2F568
:10402000006F15D0B2F5406F06D1082564E71AB9C4
:10403000002561E704255FE710255DE702255BE7C2
:10404000022559E7022557E7022555E7022553E7E0
:10405000022551E7082D00F21D81DFE815F00C0064
:104060001B0114001B0111001B011B011B01090096
:104070004FF4004008E0FDF7DDFF28B90020D9E04B
:10408000FDF714FCF9E73048626802EB4203834213
:1040900000F20281B0EB023F00F20081082D66D8E9
:1040A000DFE805F005652065306565655800FDF7BA
:1040B000C1FF0025070E0602626850082B4616EB6A
:1040C000000B47F1000C58466146FCF71FFD034604
:1040D0002846A3F540711D4A914200F2E180226812
:1040E000D360A7E0560800252B46DFF864B04FF0F8
:1040F000000C1BEB06004CF10001FCF707FD03462A
:104100002846E6E7FDF7D2FB0025070E06026268A7
:1041100050082B4616EB000B47F1000C5846614641
:10412000FCF7F4FC03462846D3E700BFF369FFEF32
:10413000008000400038014000440040004800403A
:10414000004C0040005000400024F400FFFC0F0031
:10415000000024F45008002700252B4610F500002D
:1041600047F10001FCF7D2FC03462846B1E70120E5
:104170000023AEE7082D49D8DFE805F0051E2948E1
:10418000344848483F00FDF755FF6268530803EB89
:104190004003B3FBF2F39BB20020A3F110014FF6F2
:1041A000EF7291427ED89AB222F00F02C3F342031B
:1041B00013432268D3603DE0FDF74EFF6268530869
:1041C00003EB4003B3FBF2F39BB20020E5E7626828
:1041D000530803F1F47303F59043B3FBF2F39BB27E
:1041E0000020DAE7FDF762FB6268530803EB400347
:1041F000B3FBF2F39BB20020CFE76268530803F5EC
:104200008033B3FBF2F39BB20020C6E7012000230A
:10421000C3E7FDF70FFF636800EB5302B2FBF3F255
:1042200092B20020A2F110014FF6EF7399423BD8F1
:104230002368DA60002222666266BDE8F088FDF736
:104240000BFF636800EB5302B2FBF3F292B2002063
:10425000E8E763685A0802F5740202F51052B2FBEF
:10426000F3F292B20020DDE7FDF720FB636800EB7C
:104270005302B2FBF3F292B20020D3E763685A080C
:1042800002F50042B2FBF3F292B20020CAE701202D
:104290000022C7E70120CDE70120CBE70120C9E7D5
:1042A0000120C7E70120C5E70120C3E7436A13F0F7
:1042B000010F06D00268536823F40033816A0B4370
:1042C0005360436A13F0020F06D00268536823F468
:1042D0008033C16A0B435360436A13F0040F06D066
:1042E0000268536823F48023016B0B435360436AD5
:1042F00013F0080F06D00268536823F40043416BA3
:104300000B435360436A13F0100F06D002689368A2
:1043100023F48053816B0B439360436A13F0200FA7
:1043200006D00268936823F40053C16B0B4393607B
:10433000436A13F0400F0AD00268536823F48013D5
:10434000016C0B435360036CB3F5801F0BD0436AC1
:1043500013F0800F06D00268536823F40023816CA9
:104360000B43536070470268536823F4C003416CE9
:104370000B435360EBE72DE9F04105460F46164627
:104380009846069C2B68DB6937EA03030CBF0123C0
:104390000023B3421DD1B4F1FF3FF3D02CB1FCF7A1
:1043A0009FFDA0EB0800A042ECD92A68136823F413
:1043B000D07313602A68936823F00103936020236D
:1043C00085F8713085F87230002385F8703003204D
:1043D00000E00020BDE8F08130B583B00446002342
:1043E0004367FCF77DFD054623681B6813F0080F43
:1043F0000ED123681B6813F0040F17D1202384F813
:10440000713084F87230002084F8700003B030BD41
:104410006FF07E430093034600224FF400112046C4
:10442000FFF7A9FF0028E4D00320EFE76FF07E43F9
:1044300000932B4600224FF480012046FFF79BFF9C
:104440000028DBD00320E1E778B310B5044690F8EC
:1044500071300BB3242384F871302268136823F081
:10446000010313602046FFF70FFD012813D0636A94
:10447000BBB92268536823F4904353602268936861
:1044800023F02A0393602268136843F0010313604A
:104490002046FFF7A1FF10BD80F87030FFF727FB23
:1044A000D8E72046FFF702FFE3E701207047704797
:1044B00038B5054B1B6833B11D6825B10C46014664
:1044C00002FB04F0A84738BD3C03002038B5054B7B
:1044D0001B6833B15D6825B10C46014602FB04F050
:1044E000A84738BD3C030020C308CB5CC04300F0A4
:1044F000070043FA00F000F00100704710B4C34316
:1045000003F0070301249C40E4B29A40C0080B5C0E
:1045100023EA040454FA82F20A545DF8044B70470B
:104520000022114607E0012393400340D340194481
:10453000C9B20132D2B21F2AF5D9012901D0002017
:104540007047012070470023934209DA30B4C45CFD
:10455000CD5C6C40C45401339342F8DB30BC7047EF
:1045600070472DE9F843074689469046002411E03C
:10457000E5B239462846FFF7B7FF064649462846C2
:10458000FFF7B2FF86EA0002D2B239462846FFF7AB
:10459000B5FF01344445EBDBBDE8F88380EA6013E6
:1045A0009B0503F4800303EB600070472DE9F041A5
:1045B00080460D4617460846FFF7B2FF38B1012680
:1045C00040F2E93404FB08F40134002305E000263E
:1045D000F6E70022FA540133DBB2EA1001329342CB
:1045E000F7DB4FF0000811E02046FFF7D7FF044645
:1045F000731990FBF3F003FB1040A842F4DA012298
:104600003946C0B2FFF77AFF08F10108B8EB650F31
:1046100002DA4FF48030F0E7BDE8F08170B506466D
:104620000D460024AC4208D23146E0B2FFF75CFFF1
:10463000012803D00134A4B2F4E70024204670BD61
:1046400070B506460D460024AC4208D23146E0B2B1
:10465000FFF74AFF012804D00134A4B2F4E7012097
:1046600070BD0020FCE700001E4BB3F842300FE0A5
:104670001C4A92889A4206DC01321A4BA3F8422067
:104680005DF8044B7047174BA3F84200F8E701337D
:10469000421E9A4219DD134A92889A42F7DD10B4FD
:1046A0001049B1F84020013292B2A1F8402003F144
:1046B000080401EB44014A800133421E9A42D7DDCF
:1046C000084A92889A42F7DDEAE7064A92889A42B7
:1046D00004DC0132034BA3F842207047014BA3F8DE
:1046E000420070473C0300200023094A92889A4206
:1046F0000BD903F10802064901EB42025188421C22
:10470000914203D001339BB2EFE700231846704774
:104710003C0300202DE9F843074690460C4699B12A
:1047200001FB02F34A1E02FB01F2A3EB6203DE105F
:104730005A4203F0070302F0070258BF53421D46D6
:10474000A4B14FF000090CE000252E46F8E7002246
:1047500039465FFA89F0FFF7D1FE09F101091FFA26
:1047600089F9A145F3D301E00134A4B2444511D243
:10477000094B33441A7BC5F107031A4102F00102C9
:104780003946E0B2FFF7BAFE0135082DECD101360B
:104790000025E9E7BDE8F8833C0300202DE9F0415E
:1047A000804616460C4681B101FB02F34A1E02FB0D
:1047B00001F2A3EB6203DF105A4203F0070302F099
:1047C000070258BF53421D4607E000252F4604E06C
:1047D0000135082D16D00134A4B2B44215D2414699
:1047E000E0B2FFF781FE0028F2D1094A3A4492F97B
:1047F0000C10C5F1070001238340DB435BB20B4083
:104800001373E5E701370025E5E7BDE8F08100BF58
:104810003C03002070B582B004460D4622490A6070
:1048200088808D710023A1F84230A1F840308B6060
:1048300008E003F108011C4A02EB4102012151800A
:104840000B449BB2142BF4D900230BB100230BE0D3
:10485000154A1A44002182F83C100133F5E7124A48
:104860001A44FF2111730133042BF8D9002600E00C
:10487000013605FB04F3B3420ED90B4B1B68002B2A
:10488000F6D01B68002BF3D002A9FF2201F8042DFB
:10489000012230469847EBE7034B0022A3F8402063
:1048A000A3F8422002B070BD3C03002040F21A4041
:1048B000704700002DE9F04790B004468846032277
:1048C00000210FA80DF0DBFB3222002102A80DF021
:1048D000D6FB0122002101A80DF0D1FB012200210D
:1048E00068460DF0CCFB8C4BDC87B3F84230A3421A
:1048F00000F20B81884B9B8801339C420CDB864B7A
:10490000B3F84030052B19D9834B012283F844209A
:10491000002010B0BDE8F0877F4D611EAA7989B2F2
:104920004046FFF7C5FDE31D05EB430500236B8003
:104930002046FFF799FE4FF0FF30EAE72046FFF7E9
:1049400093FE754BB3F840000028E2D098880FAA78
:104950000146201AFFF72AFE0024264608E0013807
:10496000012201A9C0B2FFF7C9FD06B90126013431
:10497000694B9B88A3421FDDE5B20FA92846FFF7CC
:10498000B3FD0128F3D104F10803634A02EB4303AA
:1049900058880028E3D100220FA92846FFF7AEFD72
:1049A0005D4DAA79A1B202A8FFF790FDAA7902A9EC
:1049B0004046FFF7C8FDDAE7574BB3F8401001A8AF
:1049C000FFF72CFE05466EB3EEB254493046FFF7B2
:1049D0008BFD012829D1504CB4F840202946684667
:1049E000FFF798FEB4F84020694601A8FFF7B9FD2B
:1049F0002846FFF779FEA279014602A8FFF766FD77
:104A0000A27902A94046FFF79EFDB4F84040214636
:104A100001A8FFF715FEA8B9214601A8FFF7FEFD82
:104A20000546D1E74FF0FF3073E7002363B13A4BFF
:104A30009A68B3F8400082426AD101287FF669AFD4
:104A4000851E4CE00123F1E7334CB4F840202946A1
:104A500001A8FFF7A3FE2846FFF746FEA27901460C
:104A60004046FFF725FD012204F13C013046FFF7E7
:104A700045FDA3680133A360D9E7013CA54227DACD
:104A8000254EB6F8402049466846FFF743FEA7B2D8
:104A9000B6F84020394601A8FFF73CFE6946E0B26F
:104AA000FFF722FD0128E8D1B6F8402001A96846A9
:104AB000FFF757FD3846FFF717FEB279014640462B
:104AC000FFF704FDB279414602A8FFF73CFDD4E7A9
:104AD000114B9A79514602A8FFF7EAFC013D002DDF
:104AE0000FDB1FFA85F94846FFF7FEFD82460A4CA8
:104AF000A279014602A8FFF7E9FCB4F84040013C66
:104B0000BCE7054BB3F8400003E74FF0FF3000E788
:104B10004FF0FF30FDE600BF3C030020780300208B
:104B2000034B53F83E1F5B6801604360704700BF52
:104B30003C03002070B505460E46002405E05B6985
:104B40000BB130469847013464B2032C28DC154B76
:104B500053F82430002BF6D0032DF4D801A252F8DC
:104B600025F000BF3F4B0008754B0008894B00083B
:104B7000954B00089A69002AE5D01978F378994294
:104B8000E1D130469047DEE7DB69002BDBD03046D1
:104B90009847D8E71B6A002BD5D030469847D2E714
:104BA00070BD00BF8403002010B504460C480123EB
:104BB00003706378437094F902308372E368C360D2
:104BC00094F9033003762369437623794372054BC6
:104BD0001B699B6A984721460020FFF7ABFF10BD79
:104BE000200000208403002030B585B004AC0923E8
:104BF00004F8103D204605F01DF90546054B1B69DC
:104C00001B6A2146984715B9002005B030BD4FF00A
:104C1000FF30FAE78403002030B585B004AC0B23E5
:104C200004F8103D204605F005F90546054B1B69C3
:104C30001B6A2146984715B9002005B030BD4FF0DA
:104C4000FF30FAE78403002010B58AB0C0B9194BD1
:104C50000093194C636993F902308DF804300023F6
:104C60008DF8053001238DF808308DF80C3002A83E
:104C700004F030FC23695B6A684698470AB010BDAF
:104C800000238DF808300D4B03F11D02039203F150
:104C900025020492084A516989788DF8141001217F
:104CA000197713691C6A02A805F0C4F802A9A04785
:104CB000E4E700BF3C000020840300202000002027
:104CC00010B588B03A4B596118613A4A9A613A4A2C
:104CD000DA613A4A1A623A4A5A6202689A62426849
:104CE000DA62384A1A6302695A63002283F838206C
:104CF0000A7803F1280103F1180003F0E5FF00280A
:104D00004ED101F03CFD002837D1294B1B695B696E
:104D100098471B238DF80030254C6369DB788DF8AC
:104D20000430684604F0D6FB02238DF80030636936
:104D30005B788DF80430684604F0CCFB6369187921
:104D400005F010FA2E238DF80030142301936846E5
:104D500004F0C0FB04F00AFA01238DF80030684625
:104D600004F072FAF8B99DF80430F3B923699B692D
:104D700015489847002008B010BD05238DF8003075
:104D8000124C04F12D030193684604F0A3FB0723A2
:104D90008DF800303D340194684604F09BFBB8E781
:104DA0004FF0FF30E7E70020E5E70020E3E700BF32
:104DB00084030020A94B0008F5500008B1510008F9
:104DC000054F0008796700083C0000202000002003
:104DD00008B5024B187FFFF737FF08BD2000002001
:104DE00000B589B008A8012300F8203D04F02CFA92
:104DF00020B99DF8043013B1012000E0002009B073
:104E00005DF804FB08B502F0B9FF034608B1184687
:104E100008BDFFF7E5FF012805D1054B1B68DB68DE
:104E200098470346F3E7FFF7D3FF0123EFE700BFFF
:104E30008403002030B587B004460D46FFF7D0FF4D
:104E4000012837D12D4B1B68DB68984738B1237890
:104E50002A4A12681278934201D0002B47D1274B7F
:104E60005B6993F902308DF8163001A9607804F07F
:104E700085F930B30023224A13728DF80830049369
:104E8000ADF814301E4B03F1100294E8030082E8E1
:104E900003001A4C626992F902209A7202A805F086
:104EA000AFF805462369DB6902A9984715BB0020C6
:104EB00007B030BD124B187FFFF7C6FE4FF0FF3032
:104EC000F6E70F4B1D7223788DF80C306378ADF840
:104ED0001430636804931DB900238DF80830D1E7BE
:104EE00001238DF8083008238DF81730CAE74FF0FA
:104EF000FF30DDE74FF0FF30DAE700BF840300202A
:104F00002000002070B588B00446384A002382F89B
:104F10005830437882F859300E2B06D0344B1B6939
:104F2000DB6A02F158010020984721460320FFF771
:104F300001FE23780A2B30D00E2B0DD0062B01D08A
:104F400008B070BD00218DF800108DF8011001919E
:104F50006846FFF76FFFF3E700258DF800508DF8E6
:104F60000450684604F0B6FA214C012384F83D3021
:104F7000256484F851500622294604F152000DF0B0
:104F80007EF823691B6B2846984723695B6B04F105
:104F90003C009847FFF728FED2E763780E2B12D02B
:104FA000134E032386F83D3006F1400504340FCC40
:104FB0000FC594E8030085E8030033695B6B06F1D5
:104FC0003C009847BCE70A4E022386F83D3006F1C4
:104FD000400504340FCC0FC594E8030085E80300B6
:104FE00033695B6B06F13C009847A9E7200000207D
:104FF0008403002010B586B00C238DF808309DF88E
:105000000C3060F302036FF3C7038DF80C3002A875
:1050100004F010FF04460A4B1B691B6A02A998475B
:1050200054B900218DF800108DF8011001916846E7
:10503000FFF700FF06B010BD4FF0FF30FAE700BFEA
:105040008403002010B588B0044608A8002300F8A7
:10505000203D04F0F9F89DF80430A34230D0012C33
:1050600014D01CB1022C19D000242AE00BB9002462
:1050700027E000238DF80430684604F02BFA18BBB3
:10508000144B1B691B6B984700241AE0FFF7ACFD1B
:105090000446104B012283F8382012E06BB900243B
:1050A00002238DF80430684604F014FA78B9094BED
:1050B0001B691B6B0220984703E04FF0FF34EFE7BA
:1050C0000024204608B010BD4FF0FF34F9E74FF040
:1050D000FF34F6E78403002000B589B008A8002358
:1050E00000F8203D04F0B0F89DF8040009B05DF828
:1050F00004FB0000254A012382F85830437882F8E7
:105100005930002B40D110B584B0044690F90430DA
:10511000114682F86030B0F90E3082F8613090F9B3
:10512000103082F862304369536690F9113082F88A
:105130006830C3788DF80830037B8DF809308368B8
:105140000393134B1B69DB6A583102A89847237FEE
:105150001BB10F4B1B699B6B984721460120FFF742
:10516000E9FC6379012B01D004B010BDFFF7B4FF57
:105170000028F9D100218DF800108DF8011001915F
:105180006846FFF757FEEFE7704700BF200000209A
:105190008403002000B589B008A82B2300F8203D27
:1051A00004F052F89DF9040009B05DF804FB00001A
:1051B00070B588B0044630480023037063784370AC
:1051C0002E4B1B699B6A984721460220FFF7B2FCD1
:1051D00023780C2B20D8DFE803F0071F1F1F1F1FA9
:1051E0001F1F1F261F2E370008A8042300F8203D8C
:1051F00004F02AF8204DEB6E019A9A63FFF7CAFF7C
:1052000085F8700063784BB9002285F871201B4B3C
:105210001B695B6A1A48984708B070BD164BFF229D
:1052200083F87120F3E7154B93F83830002BF3D057
:10523000FFF7F2FCF0E763781BB90020FFF7DAFE16
:10524000EAE7FFF7D1FCE7E763781BB10020FFF73F
:10525000D1FEE1E700258DF8005001268DF80460AD
:10526000684604F037F9054C23691B6B30469847B4
:1052700084F83850D0E700BF2000002084030020CD
:105280008C000020014B5B69187870478403002074
:1052900038B504460D46032827D8DFE800F0021D84
:1052A000202300F0FDFD18B3134B43F824001A69C6
:1052B000D1694162116A81621049C162104901637A
:1052C00010494163926B826344685B695A799968BB
:1052D0002846A047002038BD00F018FCE3E701F0A5
:1052E00047FAE0E700F0B0FFDDE74FF0FF30F2E70C
:1052F0004FF0FF30EFE700BF84030020494C000867
:10530000354E0008E94B000808B5044B53F820302F
:105310009B680BB1984708BD0020FCE78403002080
:1053200038B5002401E0013464B2032C12DC0A4BCE
:1053300053F82430002BF6D01B69002BF3D0E0B2D9
:10534000FFF7E2FF0028EED0034B53F824301B692F
:105350009847E8E738BD00BF8403002008B5084B34
:105360001B6E03B1984703F079FCFFF7D9FF01F0FA
:1053700004FA20B9034B1B695B690120984708BDFB
:105380008C36010884030020F8B507460E46002439
:10539000254606E00C480DF0AFF8002505E0013485
:1053A000E4B2B4420BD2002DF4D1395D07480DF0C0
:1053B0002FF8631C13F00F0FF1D10125EFE702481E
:1053C0000DF09AF8F8BD00BFF0370108F437010876
:1053D00008B5012803D004480DF08EF808BD034835
:1053E0000DF08AF8FAE700BF38380108FC370108E9
:1053F00038B5054641781A480DF00AF8012405E051
:105400002B19597817480DF003F80134072CF7DDF4
:1054100015480DF071F8697A14480CF0F9FF012471
:1054200005E02B19597A0F480CF0F2FF0134072CD4
:10543000F7DD0D480DF060F895F821100C480CF0E0
:10544000E7FF012406E02B1993F8211009480CF01E
:10545000DFFF01340F2CF6DD07480DF04DF838BDA5
:105460007438010888380108F037010890380108BD
:10547000A4380108B8380108C038010810B504463E
:105480000B78012B0CD0DBB1032B23D016480DF089
:1054900033F816480DF030F815480DF02DF808E0F7
:1054A00011480DF029F813480DF026F810480DF0BA
:1054B00023F8114B53F8241010480CF0A9FF10BD2D
:1054C00009480DF019F80E480DF016F808480DF0CF
:1054D00013F8EEE704480DF00FF80A480DF00CF849
:1054E00003480DF009F8E4E7C4380108DC39010885
:1054F00034390108FC38010894000020143A0108EE
:105500006C390108A439010810B504460B78092B41
:105510003ED8DFE803F0053D3D1529333D3D3D1FF5
:1055200020480CF0E9FF20480CF0E6FF1F480CF083
:10553000E3FF1F4B53F824101E480CF069FF10BD09
:1055400018480CF0D9FF1C480CF0D6FF17480CF097
:10555000D3FFEEE713480CF0CFFF18480CF0CCFF58
:1055600012480CF0C9FFE4E70E480CF0C5FF1448E0
:105570000CF0C2FF0D480CF0BFFFDAE709480CF051
:10558000BBFF10480CF0B8FF08480CF0B5FFD0E79F
:1055900004480CF0B1FF0C480CF0AEFF03480CF0CF
:1055A000ABFFC6E7283A0108603A01083439010820
:1055B00094000020143A0108983A0108D03A0108F2
:1055C000083B0108403B0108783B01087047000098
:1055D00030B589B004460378002B44D04C480CF019
:1055E0008BFF62784B4B03EB8203196E4A480CF039
:1055F0000FFFE16849480CF00BFF494D28460CF0BD
:105600007BFFFFF769FD474B195C47480CF000FF33
:1056100028460CF071FF217C44480CF0F9FE637CB5
:105620006BBB3F480CF068FF94F90A1040480CF03F
:10563000EFFE08A81D2300F8203D03F005FE00281A
:1056400034D094F918103B480CF0E2FE08A822234D
:1056500000F8203D03F0F8FD002831D030480CF070
:105660004BFF09B030BD34480CF046FF6278294B3F
:1056700003EB8203196E28480CF0CAFEF1E72F48AD
:105680000CF0C6FE237A012B0CD1637A43B12C496E
:105690002C480CF0BDFE617C6069FFF775FEC0E729
:1056A0002949F5E729480CF027FFF4E7637E03EB6F
:1056B00043039A00019B995825480CF0A9FEC0E7C6
:1056C00024480CF0A5FEFFF7DDFD09281CD8DFE813
:1056D00000F005191905050505051905019B19882F
:1056E0001D480CF095FE0E480CF006FFB6E7019B36
:1056F00033F8141018480CF08BFE0134E4B2042C7B
:10570000F5D9F0E70024FAE714480CF081FEEAE747
:10571000F43B010894000020143A01082C3C0108D5
:10572000F03701084C3D0108603C0108743C010859
:10573000BC3C0108E83C0108BC3B0108883C01086E
:10574000B03B0108983C0108B43B0108AC3C01089F
:10575000D43C0108FC3C01080C3D0108143D010843
:10576000F0B587B007460E466C462A4D0FCD0FC4E4
:1057700095E8030084E803003378002B36D02648F0
:105780000CF0BAFE7278254B03EB8203196E2448A5
:105790000CF03EFEF16823480CF03AFE96F910300A
:1057A00006AA02EB830353F8181C1F480CF030FEC6
:1057B00039781E480CF02CFE7B781BBB1C4C204615
:1057C0000CF09AFE96F908101A480CF021FE96F992
:1057D000091019480CF01CFE96F90A1017480CF035
:1057E00017FE20460CF088FE07B0F0BD14480CF000
:1057F00083FE7278094B03EB8203196E08480CF0A4
:1058000007FEF1E70F480CF077FE79787868FFF72C
:10581000BBFDD3E7B8320108883D010894000020A1
:10582000143A0108C03D0108F43D0108083E010892
:10583000F0370108BC3C01082C3E0108403E01083D
:10584000503D01081C3E010838B54378022B0BD0AF
:10585000032B34D0012B03D01B480CF04DFE38BD78
:105860001A480CF049FEFAE70446416818480CF063
:10587000CFFD617D17480CF0CBFD17480CF0C8FD3B
:10588000062104F11600FFF77FFD144D28460CF0A9
:1058900033FEE16812480CF0BBFD217C11480CF08E
:1058A000B7FDB4F9121010480CF0B2FD94F91410C1
:1058B0000E480CF0ADFD28460CF01EFECFE70C485C
:1058C0000CF01AFECBE700BF543E01088C3E0108E5
:1058D000C43E0108F03E0108043F0108F03701080A
:1058E000143F0108BC3C01082C3E0108403E010861
:1058F000283F010808B5034B195C03480CF088FDEC
:1059000008BD00BF4C3D0108603F0108F8B50746DF
:105910000D4614460B4E30460CF0EEFD39460A4853
:105920000CF076FD6B78AA78E97808480CF070FDE9
:105930006378A278E17806480CF06AFD30460CF0F6
:10594000DBFDF8BD9C3F0108D83F0108F43F01088A
:105950001440010831B1064B59609A7001221A7047
:105960005A707047024B00225A701A70704700BF7D
:10597000DC030020014B1878704700BFDC030020D7
:10598000024B187800B15878704700BFDC03002044
:10599000704700002DE9F04182B0064600242346FE
:1059A0000DE0474B5A68611CC9B200231355A31C74
:1059B000DBB2012050540334E4B2D0542B46327B86
:1059C0009A426BD9B1685D1CEDB2CA5C012A29D03C
:1059D000002AE6D0022AF1D10233DDB2DFF8E080FE
:1059E000D8F80420631CDBB2022111556718FFB2FE
:1059F0000121D15468460BF0F5FF324B009A134455
:105A0000D8F80420E11CC9B2D3551F0A201DC0B22A
:105A100057541F0C611DC9B217541B0E0634E4B253
:105A20005354CBE7327F002AC8D19F1CFFB24A5D96
:105A3000D81CC0B2CD5D02EB05221D1DEDB2085C85
:105A400002EB0042581DC0B24F5D02EB0767063300
:105A5000DDB20A5C1A4B1B7A03F00F0302F00F024F
:105A60009A42ABD1E84640460BF0BCFF009B3B445A
:105A7000009398E803000BF099FF11490B7A03F0AB
:105A80000F02013262F303030B720F4B9B6B002B6F
:105A900094D07A1C022A91D898478FE764B1CA2320
:105AA0008DF800308DF80140054B5B680193064B83
:105AB0001B6B00216846984702B0BDE8F08100BF2B
:105AC000DC03002080C22AED380100200E4B5B7AF7
:105AD00003B9704710B588B002238DF800300A4C26
