:020000040800F2
:1000000000800120156101087D91000865610108EB
:100010007F91000881910008839100080000000092
:100020000000000000000000000000006561010801
:100030008591000800000000656101086164000806
:100040006561010865610108656101086561010874
:100050006561010865610108FD82000807830008E9
:10006000118300081B8300082583000865610108CF
:10007000F16700080168000811680008216800089D
:100080006561010865610108656101086561010834
:100090006561010865610108656101082F83000839
:1000A0006561010865610108656101086561010814
:1000B0006561010865610108656101086561010804
:1000C00065610108656101086561010865610108F4
:1000D0006561010865610108E9970008656101082B
:1000E00055830008B18B000865610108656101084E
:1000F00065610108656101086561010865610108C4
:1001000065610108656101086561010865610108B3
:1001100065610108656101082D55000865610108E8
:100120006561010865610108656101086561010893
:100130006561010865610108656101086561010883
:100140006561010865610108656101086561010873
:100150006561010865610108656101086561010863
:100160006561010865610108656101086561010853
:100170006561010865610108656101080000000012
:080180006561010865610108D9
:1001900010B5054C237833B9044B13B10448AFF3C1
:1001A00000800123237010BD08040020000000001F
:1001B0003873010808B5034B1BB103490348AFF37B
:1001C000008008BD000000000C0400203873010806
:1001D00081F0004102E000BF83F0004330B54FEAF8
:1001E00041044FEA430594EA050F08BF90EA020F65
:1001F0001FBF54EA000C55EA020C7FEA645C7FEAF8
:10020000655C00F0E2804FEA5454D4EB5555B8BF1A
:100210006D420CDD2C4480EA020281EA030382EA8B
:10022000000083EA010180EA020281EA0303362D1D
:1002300088BF30BD11F0004F4FEA01314FF4801CF0
:100240004CEA113102D0404261EB410113F0004F02
:100250004FEA03334CEA133302D0524263EB4303B9
:1002600094EA050F00F0A780A4F10104D5F1200E57
:100270000DDB02FA0EFC22FA05F2801841F10001B2
:1002800003FA0EF2801843FA05F359410EE0A5F186
:1002900020050EF1200E012A03FA0EFC28BF4CF0B7
:1002A000020C43FA05F3C01851EBE37101F000456D
:1002B00007D54FF0000EDCF1000C7EEB00006EEB7A
:1002C0000101B1F5801F1BD3B1F5001F0CD3490804
:1002D0005FEA30004FEA3C0C04F101044FEA44525B
:1002E00012F5800F80F09A80BCF1004F08BF5FEAE2
:1002F000500C50F1000041EB045141EA050130BDC2
:100300005FEA4C0C404141EB010111F4801FA4F164
:100310000104E9D191F0000F04BF01460020B1FAB9
:1003200081F308BF2033A3F10B03B3F120020CDAF1
:100330000C3208DD02F1140CC2F10C0201FA0CF0CF
:1003400021FA02F10CE002F11402D8BFC2F1200C34
:1003500001FA02F120FA0CFCDCBF41EA0C019040EA
:10036000E41AA2BF01EB0451294330BD6FEA040433
:100370001F3C1CDA0C340EDC04F11404C4F120021E
:1003800020FA04F001FA02F340EA030021FA04F330
:1003900045EA030130BDC4F10C04C4F1200220FA87
:1003A00002F001FA04F340EA0300294630BD21FAC5
:1003B00004F0294630BD94F0000F83F4801306BF8B
:1003C00081F480110134013D4EE77FEA645C18BF7F
:1003D0007FEA655C29D094EA050F08BF90EA020F16
:1003E00005D054EA000C04BF1946104630BD91EA0E
:1003F000030F1EBF0021002030BD5FEA545C05D111
:100400004000494128BF41F0004130BD14F580044F
:100410003CBF01F5801130BD01F0004545F0FE41C3
:1004200041F470014FF0000030BD7FEA645C1ABFF8
:10043000194610467FEA655C1CBF0B46024650EA2F
:10044000013406BF52EA033591EA030F41F400215B
:1004500030BD00BF90F0000F04BF0021704730B5E1
:100460004FF4806404F132044FF000054FF00001B6
:1004700050E700BF90F0000F04BF0021704730B577
:100480004FF4806404F1320410F0004548BF40424C
:100490004FF000013EE700BF42004FEAE2014FEAA1
:1004A00031014FEA02701FBF12F07F4393F07F4F7C
:1004B00081F06051704732F07F4208BF704793F07F
:1004C0007F4F04BF41F40021704730B54FF4607492
:1004D00001F0004521F000411CE700BF50EA010295
:1004E00008BF704730B54FF000050AE050EA01023E
:1004F00008BF704730B511F0004502D5404261EBAE
:1005000041014FF4806404F132045FEA915C3FF4EE
:10051000D8AE4FF003025FEADC0C18BF03325FEA8B
:10052000DC0C18BF033202EBDC02C2F1200300FA3C
:1005300003FC20FA02F001FA03FE40EA0E0021FA61
:1005400002F11444BDE600BF70B54FF0FF0C4CF44F
:10055000E06C1CEA11541DBF1CEA135594EA0C0F01
:1005600095EA0C0F00F0DEF82C4481EA030621EA3C
:100570004C5123EA4C5350EA013518BF52EA033577
:1005800041F4801143F4801338D0A0FB02CE4FF029
:100590000005E1FB02E506F00042E0FB03E54FF059
:1005A0000006E1FB03569CF0000F18BF4EF0010E51
:1005B000A4F1FF04B6F5007F64F5407404D25FEA4D
:1005C0004E0E6D4146EB060642EAC62141EA555100
:1005D0004FEAC52040EA5E504FEACE2EB4F1FD0C42
:1005E00088BFBCF5E06F1ED8BEF1004F08BF5FEAC0
:1005F000500E50F1000041EB045170BD06F0004672
:1006000046EA010140EA020081EA0301B4EB5C041E
:10061000C2BFD4EB0C0541EA045170BD41F4801116
:100620004FF0000E013C00F3AB8014F1360FDEBF3B
:10063000002001F0004170BDC4F10004203C35DA17
:100640000C341BDC04F11404C4F1200500FA05F39A
:1006500020FA04F001FA05F240EA020001F000423B
:1006600021F0004110EBD37021FA04F642EB0601B1
:100670005EEA430E08BF20EAD37070BDC4F10C04DB
:10068000C4F1200500FA04F320FA05F001FA04F29F
:1006900040EA020001F0004110EBD37041F100018B
:1006A0005EEA430E08BF20EAD37070BDC4F1200596
:1006B00000FA05F24EEA020E20FA04F301FA05F2FE
:1006C00043EA020321FA04F001F0004121FA04F2A6
:1006D00020EA020000EBD3705EEA430E08BF20EA76
:1006E000D37070BD94F0000F0FD101F000464000B0
:1006F00041EB010111F4801F08BF013CF7D041EA32
:10070000060195F0000F18BF704703F00046520035
:1007100043EB030313F4801F08BF013DF7D043EA06
:100720000603704794EA0C0F0CEA135518BF95EABC
:100730000C0F0CD050EA410618BF52EA4306D1D143
:1007400081EA030101F000414FF0000070BD50EA62
:10075000410606BF1046194652EA430619D094EAEC
:100760000C0F02D150EA013613D195EA0C0F05D1D6
:1007700052EA03361CBF104619460AD181EA03012A
:1007800001F0004141F0FE4141F470014FF00000E2
:1007900070BD41F0FE4141F4780170BD70B54FF07D
:1007A000FF0C4CF4E06C1CEA11541DBF1CEA1355FD
:1007B00094EA0C0F95EA0C0F00F0A7F8A4EB0504DF
:1007C00081EA030E52EA03354FEA013100F08880D6
:1007D0004FEA03334FF0805545EA131343EA12639F
:1007E0004FEA022245EA111545EA10654FEA002654
:1007F0000EF000419D4208BF964244F1FD0404F50D
:10080000407402D25B084FEA3202B61A65EB030568
:100810005B084FEA32024FF480104FF4002CB6EB25
:10082000020E75EB030E22BFB61A754640EA0C00A5
:100830005B084FEA3202B6EB020E75EB030E22BFE5
:10084000B61A754640EA5C005B084FEA3202B6EB26
:10085000020E75EB030E22BFB61A754640EA9C00E5
:100860005B084FEA3202B6EB020E75EB030E22BFB5
:10087000B61A754640EADC0055EA060E18D04FEA73
:10088000051545EA16754FEA06164FEAC30343EA13
:1008900052734FEAC2025FEA1C1CC0D111F4801FE0
:1008A0000BD141EA00014FF000004FF0004CB6E7D9
:1008B00011F4801F04BF01430020B4F1FD0C88BF78
:1008C000BCF5E06F3FF6AFAEB5EB030C04BFB6EB83
:1008D000020C5FEA500C50F1000041EB045170BD76
:1008E0000EF0004E4EEA113114EB5C04C2BFD4EBA3
:1008F0000C0541EA045170BD41F480114FF0000E27
:10090000013C90E645EA060E8DE60CEA135594EAA2
:100910000C0F08BF95EA0C0F3FF43BAF94EA0C0FA5
:100920000AD150EA01347FF434AF95EA0C0F7FF41A
:1009300025AF104619462CE795EA0C0F06D152EA6E
:1009400003353FF4FDAE1046194622E750EA410652
:1009500018BF52EA43067FF4C5AE50EA41047FF463
:100960000DAF52EA43057FF4EBAE12E74FF0FF3CC8
:1009700006E000BF4FF0010C02E000BF4FF0010C99
:100980004DF804CD4FEA410C7FEA6C5C4FEA430C12
:1009900018BF7FEA6C5C1BD001B050EA410C0CBF61
:1009A00052EA430C91EA030F02BF90EA020F0020C3
:1009B000704710F1000F91EA030F58BF994208BF2A
:1009C00090422CBFD8176FEAE37040F001007047E7
:1009D0004FEA410C7FEA6C5C02D150EA013C07D13E
:1009E0004FEA430C7FEA6C5CD6D152EA033CD3D089
:1009F0005DF8040B704700BF8446104662468C4683
:100A00001946634600E000BF01B5FFF7B7FF0028B5
:100A100048BF10F1000F01BD4DF808EDFFF7F4FFDE
:100A20000CBF012000205DF808FB00BF4DF808ED69
:100A3000FFF7EAFF34BF012000205DF808FB00BF8C
:100A40004DF808EDFFF7E0FF94BF012000205DF8AE
:100A500008FB00BF4DF808EDFFF7CEFF94BF012063
:100A600000205DF808FB00BF4DF808EDFFF7C4FF5C
:100A700034BF012000205DF808FB00BF4FEA4102AF
:100A800012F5001215D211D56FF47873B3EB6252E0
:100A900012D94FEAC12343F0004343EA505311F007
:100AA000004F23FA02F018BF404270474FF0000099
:100AB000704750EA013005D111F0004008BF6FF0D7
:100AC000004070474FF00000704700BF4A0011D24D
:100AD00012F5001211D20DD56FF47873B3EB625298
:100AE0000ED44FEAC12343F0004343EA505323FAA4
:100AF00002F070474FF00000704750EA013002D119
:100B00004FF0FF3070474FF0000070477BB972B96B
:100B10000029BEBF00204FF0004106E008BF0028BA
:100B20001CBF6FF000414FF0FF3000F0BDB9ADF1D8
:100B3000080C6DE904CE002909DB002B1ADB00F05C
:100B40004DF8DDF804E0DDE9022304B070474042CF
:100B500061EB4101002B1BDB00F040F8DDF804E005
:100B6000DDE9022304B0404261EB4101524263EBF4
:100B700043037047524263EB430300F02FF8DDF864
:100B800004E0DDE9022304B0404261EB410170471B
:100B9000524263EB430300F021F8DDF804E0DDE9A5
:100BA000022304B0524263EB4303704753B94AB97E
:100BB000002908BF00281CBF4FF0FF314FF0FF3065
:100BC00000F072B9ADF1080C6DE904CE00F006F842
:100BD000DDF804E0DDE9022304B070472DE9F047B9
:100BE000089E04468846002B4BD18A42154667D999
:100BF000B2FA82F24AB1C2F1200701FA02F320FAF6
:100C000007F7954047EA030894404FEA154E230C36
:100C1000B8FBFEF71FFA85FC0EFB178843EA084372
:100C200007FB0CF1994209D9EB1807F1FF3080F06E
:100C30001B81994240F21881023F2B445B1AA4B2F7
:100C4000B3FBFEF00EFB103344EA034400FB0CFC44
:100C5000A44509D92C1900F1FF3380F00781A44580
:100C600040F2048102382C4440EA0740A4EB0C0413
:100C700000271EB1D4400023C6E900433946BDE831
:100C8000F0878B4209D9002E00F0EB800027C6E9DF
:100C9000000138463946BDE8F087B3FA83F7002FE4
:100CA00047D18B4202D3824200F2FA80841A61EB70
:100CB000030301209846002EE0D0C6E90048DDE796
:100CC00002B9FFDEB2FA82F2002A40F08F80491B9F
:100CD0004FEA154E1FFA85F80127B1FBFEFC230CE5
:100CE0000EFB1C1143EA014308FB0CF1994207D9A2
:100CF000EB180CF1FF3002D2994200F2CD8084460D
:100D0000591AA3B2B1FBFEF00EFB101443EA0444DF
:100D100008FB00F8A04507D92C1900F1FF3302D2D7
:100D2000A04500F2B6801846A4EB080440EA0C4047
:100D30009FE7C7F1200CBB4022FA0CFE4EEA030EDF
:100D400001FA07F420FA0CF521FA0CF34FEA1E48D9
:100D50002543B3FBF8F92C0C08FB19331FFA8EFA64
:100D600044EA034309FB0AF49C4202FA07F200FA40
:100D700007F10BD91EEB030309F1FF3080F08780E8
:100D80009C4240F28480A9F1020973441B1BADB25E
:100D9000B3FBF8F008FB103345EA034400FB0AFA02
:100DA000A24508D91EEB040400F1FF336BD2A24523
:100DB00069D90238744440EA0940A0FB0289A4EBD7
:100DC0000A044C45C2464B4654D351D0002E69D03C
:100DD000B1EB0A0564EB030404FA0CFCFD40FC4093
:100DE0004CEA0505C6E90054002747E7C2F1200395
:100DF00020FA03F7954001FA02F021FA03F34FEAD3
:100E0000154E3843010CB3FBFEF71FFA85F80EFBB5
:100E1000173341EA034107FB08F38B4204FA02F45B
:100E200007D9691807F1FF3C2FD28B422DD9023F19
:100E30002944CB1A81B2B3FBFEF00EFB103341EA1A
:100E4000034100FB08F38B4207D9691800F1FF3C0E
:100E500017D28B4215D902382944C91A40EA0747EC
:100E60003BE73746304609E70746E7E61846FBE624
:100E70004145ABD2B8EB020A69EB0E0201381346CA
:100E8000A4E76046E9E7184695E76746D1E781465B
:100E90007CE702382C4447E7ACF1020C2B442FE7E7
:100EA000384608E73746E9E6704700BF0000000013
:100EB00001F0FF01102A2BDB10F0070F08D010F80B
:100EC000013B013A8B422DD010F0070F42B3F6D10F
:100ED000F0B441EA012141EA014122F007047FF028
:100EE00000070023F0E80256083C85EA010586EA7F
:100EF000010685FA47F5A3FA87F586FA47F6A5FABB
:100F000087F68EB9EED1F0BC01F0FF0102F00702C6
:100F100032B110F8013B013A83EA010313B1F8D171
:100F20000020704701387047002D06BF3546033852
:100F3000073815F0010F07D1013015F4807F02BF8B
:100F4000013015F4C03F0130F0BC0138704700BFDC
:100F500010B5032000F092FE0F2004F09FFA10B1AC
:100F60000124204610BD044602F0D4F8F9E7000041
:100F7000024A136801331360704700BF5418002001
:100F8000014B1868704700BF5418002038B504465C
:100F9000FFF7F6FF0546B4F1FF3F00D00134FFF73D
:100FA000EFFF401BA042FAD338BD0000024A53684D
:100FB00043F0010353607047002004E0024A536885
:100FC00043F0020353607047002004E0024A536874
:100FD00043F0040353607047002004E070470000B2
:100FE00030B583B000230193002800F0F58004465B
:100FF000436D03B323689A6812F0005F05D09A68C6
:1010000022F0204222F03F029A602268936813F097
:10101000805F1DD1936823F0104323F03F0343F01A
:10102000805393606D4B1B689B096D4AA2FB0323A1
:101030009B09019309E0FFF7D1FF0023A36584F822
:101040005030D7E7019B013B0193019B002BF9D165
:1010500023689A6812F0805F40F08980626D42F0E8
:1010600010026265A26D42F00102A26501209A6839
:1010700012F0040F7DD00121626D12F0100F40F0CC
:10108000A480002940F0A180626D22F4817242F0B8
:10109000020262659B6813F0010F1BD1514B9B68E4
:1010A00013F0010F67D001214F4A926812F0010F2F
:1010B00063D001230B434D4A926812F0010F5ED0BA
:1010C0000122134306D1636849498A6822F47C12DD
:1010D00013438B60627E636B43EA4233E2681343DF
:1010E000A268134394F8202043EA0243012A48D01F
:1010F000A26A22B102F47072E16A0A4313432168C2
:10110000CD683C4A2A401343CB6023689A6812F0AA
:10111000040F3BD001219A6812F0080F38D0012249
:10112000B1B9AAB9217E94F83020520042EA813147
:10113000DA6822F4804222F002020A43DA6094F86C
:101140003830012B26D02268136923F00103136184
:101150002369012B30D02268136B23F00F03136334
:10116000636D23F0030343F00103636532E0002065
:101170007DE7002180E7002196E700239AE700221F
:101180009FE7626A013A43EA4243B1E70021C2E7BE
:101190000022C5E721680B6923F4FF6323F00403F1
:1011A000E26B256C2A43656C2A43A56C2A431343E2
:1011B00043F001030B61CBE721680B6B23F00F03B6
:1011C000E269013A13430B63CAE7636D43F010030E
:1011D0006365012003B030BD0120FBE7F80000206B
:1011E000632D3E050000045000010450000204502D
:1011F0000003045007C0F0FF704700002DE9F041E4
:101200003F4B9F6807F01F074369082B3BD057B13E
:10121000052F08D0092F06D0394B9B6813F4604F77
:101220002BD1042605E00368DB6813F0010F1DD104
:1012300004260D460446FFF7A3FE804623681A687D
:10124000324222D1B5F1FF3FF8D0FFF799FEA0EB73
:101250000800A84201D8002DF0D1636D43F00403CB
:101260006365002384F85030032004E0436D43F0AD
:10127000200343650120BDE8F081436D43F0200366
:1012800043650120F7E70826D3E7626D42F4007258
:101290006265DA6812F4406F11D1627E7AB91A6819
:1012A00012F0080F0BD0626D22F480726265626DDD
:1012B00012F4805F03D1626D42F001026265114A4F
:1012C000934209D01A46934209D047B1052F06D060
:1012D000092F04D0D26803E0A2F58072F3E7DA6840
:1012E000082E06D012F4804F07D10C221A6000207D
:1012F000C1E708221A600020BDE70020BBE700BF5D
:1013000000030450000104500368186C704700008B
:10131000F0B482B00022019290F85020012A00F02F
:1013200010820346012280F850200268926812F071
:10133000040F0AD0426D42F02002426501200022D3
:1013400083F8502002B0F0BC70474A68052A09D8DB
:10135000023A032A00F28D80DFE802F002818487DE
:101360000C224A601E684D680C6830362A0A9200CA
:1013700002F00C02B05805F01F051F27AF4020EA0D
:101380000700C4F38464AC402043B0501A689068EE
:1013900010F0040F70D00120946814F0080F6DD085
:1013A000012450BB4CBB0E688C681432700E800058
:1013B00000F004001558C6F304560727B74025EA85
:1013C0000705B4402C43145048691C68E268C2F316
:1013D000C102520000FA02F20D69042D50D00E68CD
:1013E000603454F82570B448384006F0F84632436B
:1013F000104340F0004044F825001868826812F05D
:10140000010F15D10A68CD68D0F8B040C2F31206BA
:1014100024EA060405F01806A84DF5402A40C2F358
:1014200012022243C0F8B020C868A54A90427AD080
:101430000A68A4490A4200F08081A349896801F042
:10144000E074A248824200F00C81A148824200F080
:101450004981A048824200F05D8100206FE712229E
:101460004A607FE718224A607CE74FF480724A6046
:1014700078E706224A6075E700208DE7002490E7B0
:10148000206EC0F384650A68C2F312065EBBC2F325
:10149000846295422CD01C68606EC0F384650A6833
:1014A000C2F3120646BBC2F38462954229D01C687F
:1014B000A06EC0F384650A68C2F312062EBBC2F3A5
:1014C0008462954226D01C68E06EC0F384650A6889
:1014D000C2F3120616BBC2F3846295428DD120F08E
:1014E0000040E06689E792FAA2F2B2FA82F2D0E70F
:1014F00020F000402066CEE792FAA2F2B2FA82F221
:10150000D3E720F000406066D1E792FAA2F2B2FA87
:1015100082F2D6E720F00040A066D4E792FAA2F269
:10152000B2FA82F2D9E71D680A68C2F3120696BBC6
:10153000900E013000F01F0009288CBF0020012010
:10154000002852D09EBB940E0134A40604F0F84447
:10155000B6BB900E013000F01F070120B8400443D5
:10156000C6BB920E013202F01F0202EB42021205CC
:1015700022438C681435500E800000F004002E5871
:10158000C2F304520727974026EA070604FA02F23C
:1015900032432A504CE792FAA2F0B0FA80F00130C0
:1015A00000F01F0009288CBF00200120C8E792FA34
:1015B000A2F4B4FA84F40134A40604F0F844C7E7B2
:1015C00092FAA2F0B0FA80F0013000F01F0701207B
:1015D000B840C4E792FAA2F2B2FA82F2013202F003
:1015E0001F0202EB42021205C2E7CEB9940E01348B
:1015F000A40604F0F844E6B9900E013000F01F078D
:101600000120B8400443F6B9900E013000F01F00ED
:1016100000EB40021E3A120542F000722243A8E796
:1016200092FAA2F4B4FA84F40134A40604F0F84463
:10163000E1E792FAA2F0B0FA80F0013000F01F0763
:101640000120B840DEE792FAA2F0B0FA80F0013053
:1016500000F01F0000EB40021E3A120542F000723B
:10166000DCE711F4000F7FF4F0AE1A681A498A42E1
:1016700005D001F500718A4201D000205FE644F4F4
:10168000000411498A6822F0E07214438C60134A06
:10169000126892091249A1FB0212920902EB42025E
:1016A0009100019102E0019A013A0192019A002A07
:1016B000F9D1002043E600BF00F0FF03FFFF070061
:1016C00000007F400000088000030450000052C763
:1016D000000084CB0100008000000450F8000020CE
:1016E000632D3E0511F0807F7FF4B3AE1A68164972
:1016F0008A4205D001F500718A4201D000201EE621
:1017000044F080721148816821F0E0710A438260E0
:10171000002014E611F4800F11D119680A4A914291
:1017200001D000200BE644F480020848816821F0D3
:10173000E0710A438260002001E60020FFE50020FE
:10174000FDE50220FEE500BF000004500003045048
:1017500070B5044603689A6812F0040F52D0012055
:101760009A6812F0080F4FD0012208B9002A6BD0F6
:10177000DA6812F0007F04D0208B40F20112904210
:101780004ED0022910D023689A6812F0040F0BD0B3
:101790009A6812F0020F07D19A6822F0004222F0F4
:1017A0003F0242F010029A60012910D023689A6823
:1017B00012F0080F0BD09A6812F0020F07D19A6846
:1017C00022F0004222F03F0242F020029A600229F9
:1017D00036D0032932D10C25FFF7D2FB0646236809
:1017E0009B682B422ED0FFF7CBFB801B0528F6D938
:1017F000636D43F010036365A36D43F00103A365BC
:10180000012020E00020ABE70022AEE7636D43F04B
:1018100010036365A36D43F00103A365012012E08B
:101820000022196811F0400F04D108498A42EDD80E
:101830000132F6E740221A600121A4E70425CBE734
:101840000825C9E7002070BD0020FCE7FFFF3FA38B
:1018500038B503689A6812F0010F3DD199681F4AA4
:10186000114209D0436D43F010034365836D43F08B
:1018700001038365012030E004469A6822F00042AB
:1018800022F03F0242F001029A60FFF779FB054621
:1018900004E0FFF775FB401B022811D823681A6883
:1018A00012F0010F16D19A6812F0010FF1D19A6867
:1018B00022F0004222F03F0242F001029A60E8E783
:1018C000636D43F010036365A36D43F00103A365EB
:1018D000012002E0002000E0002038BD3F00008031
:1018E00038B53B4B9D6803689B6813F0040F6AD1C1
:1018F00005F01F0590F85030012B67D004460123F6
:1019000080F85030FFF7A4FF0346002857D1626DDE
:1019100022F4706222F0010242F480726265226851
:101920002C498A422FD011468A4200D01DB9616DE0
:1019300021F480116165616D11F4805F26D0A16D85
:1019400021F00601A1651C211160002284F85020BD
:101950002168204A91421CD00A4691421CD0DDB138
:10196000052D19D0092D17D0616D41F480116165E5
:10197000D26812F0007F27D0626D22F4405242F408
:101980008052626520E0A1F58071CDE70021A1655C
:10199000D9E7A2F58072E0E7CA6812F0007F05D0AF
:1019A000626D22F4405242F4805262658A6822F0ED
:1019B000004222F03F0242F004028A6004E000226A
:1019C00084F8502000E00223184638BD0223FBE7CC
:1019D000000304500001045038B503689A6812F0FF
:1019E000020F15D001219A6812F0010F37D000299B
:1019F00037D19A6802F00D02012A0BD0436D43F0F3
:101A000010034365836D43F001038365012027E0E4
:101A10000021E8E704469A6822F0004222F03F02E3
:101A200042F002029A60036803221A60FFF7A8FAE4
:101A3000054623689B6813F0010F0ED0FFF7A0FA4C
:101A4000401B0228F5D9636D43F010036365A36D55
:101A500043F00103A365012002E0002000E0002024
:101A600038BD0020FCE7000038B5002800F0CE802B
:101A70000446436D43F0020343650321FFF768FE0C
:101A80002268D36843F40013D3600546002800F0B1
:101A9000AD802268536823F4FF6323F0070353608B
:101AA000236840F2FF721A602268936823F0A04313
:101AB00093602268936843F0005393602268D16872
:101AC000534B0B40D3602268D36843F00043D3608C
:101AD0002268136923F4FF6323F00703136122686C
:101AE000536903F0404353612268936903F07843DC
:101AF00093612268136A03F0F02313622268536A29
:101B000003F0FF2353622268936A03F0FF2393627A
:101B10002268116B3F4B0B40136323685A6B3E499D
:101B20000A405A632268936B0B4093632268D36B1D
:101B300023F4FB6323F00703D36321680A6E374B5A
:101B40001A400A6621684A6E1A404A6621688A6EFF
:101B50001A408A662168CA6E1340CB662268D2F8A2
:101B6000A030DB0CDB04C2F8A0302268D2F8A4302D
:101B7000DB0CDB04C2F8A4302268D2F8B030DB0CF6
:101B8000DB04C2F8B0302268D2F8B43023F07F13FF
:101B9000C2F8B430224B9B6813F0010F30D0012201
:101BA000204B9B6813F0010F2CD0012313431E4AD6
:101BB000926812F0010F27D0012213430AD11B4A69
:101BC000936823F0FF7323F4F73323F48F7323F028
:101BD000010393602046FFF70FFB0023A365E36535
:101BE0002366636584F85030284638BD2046FFF7E9
:101BF000F3FE054600287FF44CAF0123636548E7F8
:101C00000022CDE70023D1E70022D6E70125EBE74C
:101C100004800080300882E0200882E000F0FF03AA
:101C2000000004500001045000020450000304505E
:101C300090F85030012B1DD010B50446012380F8D8
:101C400050300321FFF784FD034620B1002284F8C1
:101C50005020184610BD2046FFF7BEFE0346002860
:101C6000F4D1626D22F4885222F0010242F00102A6
:101C70006265EBE70223184670470000074AD36805
:101C800023F4E0631B041B0C000200F4E060184323
:101C900040F0BF6040F40030D060704700ED00E0DD
:101CA00030B4174BDB68C3F30223C3F10704042CE1
:101CB00028BF04241D1D062D18D9033B4FF0FF3506
:101CC00005FA04F421EA0401994005FA03F322EA33
:101CD0000303194300280BDB0901C9B200F160407E
:101CE00000F5614080F8001330BC70470023E5E741
:101CF00000F00F000901C9B2024B1954F4E700BF0C
:101D000000ED00E014ED00E0002807DB00F01F020A
:101D1000400901239340024A42F82030704700BF37
:101D200000E100E00138B0F1807F0AD2064B586034
:101D3000064AF02182F823100020986007221A60DA
:101D400070470120704700BF10E000E000ED00E0A8
:101D500000280BDB43094033054A52F8233000F0DA
:101D60001F0023FA00F000F00100704700207047C8
:101D700000E100E0042805D0054A136823F00403BD
:101D800013607047024A136843F0040313607047FE
:101D900010E000E0704708B5FFF7FCFF08BD000049
:101DA000002869D010B403460168344A914245D8EE
:101DB000334A0A443349A1FB0212120992004264D9
:101DC000314A0264022283F825201868016821F450
:101DD000FF4121F070019A68DC6822431C692243AC
:101DE0005C6922439C692243DC6922431C6A2243CA
:101DF0000A4302609A68B2F5804F15D0196C224AE6
:101E0000914226D0214A1168586C00F01C040F2022
:101E1000A04021EA00011160116858685C6C04F070
:101E20001C04A040014311600020D863012283F804
:101E3000252083F824005DF8044B7047144A0A44B7
:101E40001049A1FB0212120992004264114A026475
:101E5000B8E7A8321168586C00F01C040F20A040AD
:101E600021EA00011160116858685C6C04F01C04E0
:101E7000A04001431160D7E70120704707040240EA
:101E8000F8FFFDBFCDCCCCCC00000240A80402403E
:101E9000F8FBFDBF0004024008B590F82530DBB226
:101EA000022B03D00423C363012008BD026813681A
:101EB00023F00E0313600268136823F0010313601C
:101EC000436C03F01C03016C012202FA03F34B6024
:101ED00080F82520002380F82430836B13B19847C5
:101EE0000020E2E70020E0E738B5036C19680468D9
:101EF0002568436C03F01C0304229A400A4215D063
:101F000015F0040F12D0236813F0200F03D12368BB
:101F100023F004032360436C03F01C02016C0423D0
:101F200093404B60036B03B1984738BD02229A403F
:101F30000A421CD015F0020F19D0236813F0200FAD
:101F400006D1236823F00A032360012380F825309B
:101F5000436C03F01C02016C022393404B6000238E
:101F600080F82430C36A002BDFD09847DDE70822D1
:101F700002FA03F30B42D8D015F0080FD5D023682E
:101F800023F00E032360436C03F01C03016C012259
:101F900002FA03F34B60C26380F82520002380F827
:101FA0002430436B002BC0D09847BEE710B4054CDB
:101FB000616941F001016161026043605DF8044BB9
:101FC000704700BF00200240084A536943F4802351
:101FD000536172B6402351F8042B40F8042B013BA7
:101FE00013F0FF03F7D162B6704700BF0020024034
:101FF000094B5B69002B01DB00207047064B074A49
:102000009A6002F188329A605B69002B01DB002044
:1020100070470120704700BF002002402301674540
:10202000034A536943F0004353610020704700BFE7
:1020300000200240074B5B6913F0804F07D0054B2F
:10204000054ADA6002F14432DA600020704701206C
:10205000704700BF002002403B2A1908034A536919
:1020600043F0804353610020704700BF00200240CE
:1020700038B50446FEF784FF05461E4B1B6913F472
:10208000803F09D0B4F1FF3FF7D0FEF779FF401B46
:10209000A042F2D3032027E0164A136923F47053B9
:1020A00023F005031B041B0C926902F0004213434A
:1020B00011D011494A681A434A6013F0404203D0D4
:1020C0000C49886902438A6133F040430DD0094AC4
:1020D0001361012008E0074B1B6913F0010F06D0C4
:1020E000044B01221A61002038BD0120FCE70020CA
:1020F000FAE700BF00200240000000202DE9F04177
:10210000284C2478012C4AD0984617460D460446A0
:10211000244B01221A704CF25030FFF7A9FF0646FB
:1021200008BB204B00225A601F4B1B6813F4806FC2
:102130001FD01D4A136823F480631360194B0222D9
:102140001A77D4B1631E012B1ED900244CF25030F3
:10215000FFF78EFF064624B1134A536923EA0404AD
:10216000546100F0E3FA0F4B00221A703046BDE8CC
:10217000F0810C4B00221A77E3E73A4643462846A3
:10218000FFF714FF0124E1E739462846FFF71CFF5B
:10219000022C01D00024D9E74FF48024D6E7022690
:1021A000E4E700BF000000200020024010F0010F13
:1021B00004D0094A536943F00403536110F0020F3D
:1021C00004D0054A536943F400435361024A5369FA
:1021D00043F48033536170470020024030B101283E
:1021E0000DD0022814D004281BD070471148C36AB0
:1021F000DBB20B60C36AC3F30743136070470D483B
:10220000036BDBB20B60036BC3F3074313607047D0
:102210000848C36CDBB20B60C36CC3F307431360A5
:1022200070470448036DDBB20B60036DC3F30743D3
:102230001360DAE700200240064B1B6ADBB2AA2BD0
:1022400001D0CC2B03D1034B186AC0B27047BB201E
:10225000704700BF00200240024B186A20F0FF00C8
:10226000704700BF0020024070B4294B1B6813F474
:10227000807F1CD1274B1B684FF6FF74A34224D0EC
:10228000254D05EA432505F100654FF0006403681C
:1022900003F00303012B20D0022B2BD01F4B9A6A93
:1022A00002F0004203681343036070BC7047194B8F
:1022B0001B684FF6FF74A3420BD0174C04EA43246B
:1022C00004F100644FF00065E1E7154D4FF0006444
:1022D000DDE74FF00065124CD9E7104E756A114BDF
:1022E00003EAC50525440D60B16A03EAC1031C4435
:1022F0001460D3E7094E746C0A4B03EAC4042C44FF
:102300000C60B16C03EAC1031D441560C6E700BF51
:1023100000000140E075FF1F00FE1F00002002408A
:1023200000000808F8FF070070B505460C46164681
:102330004CF25030FFF79CFE0346B0B9BDB91C4AC1
:10234000D36A03F0FF2344EA06441C43D462184CCA
:10235000636943F4003363614CF25030FFF788FE49
:102360000346626922F400326261184670BD012D95
:102370000CD0022D13D0042DE9D10D4A136D03F0BA
:10238000FF2344EA06441C431465E0E7084A136B44
:1023900003F0FF2344EA06441C431463D7E7044ACE
:1023A000D36C03F0FF2344EA06441C43D464CEE715
:1023B0000020024038B505464CF25030FFF758FE79
:1023C000034608B1184638BD094C206A20F0FF00CA
:1023D00028432062636943F4003363614CF2503058
:1023E000FFF746FE0346626922F400326261E9E7C4
:1023F0000020024038B504460D464CF25030FFF73D
:1024000037FE0346002879D114F0010F78D005F487
:10241000E0624FF4E06314F0020F04D005F4805141
:102420000A4343F4805314F0040F04D005F4005120
:102430000A4343F4005314F4805F04D005F4804150
:102440000A4343F4804314F0080F04D005F48031AC
:102450000A4343F4803314F0100F04D005F4003124
:102460000A4343F4003314F0200F04D005F4802114
:102470000A4343F4802314F0400F04D005F40021F4
:102480000A4343F4002314F0800F04D005F48011B4
:102490000A4343F4801314F4807F04D005F4001140
:1024A0000A4343F4001314F4007F04D005F4000140
:1024B0000A4343F4000314F4806F04D005F08071E4
:1024C0000A4343F0807314F4006F04D005F00075E4
:1024D0002A4343F000730C4C216A21EA03031A4398
:1024E0002262636943F4003363614CF25030FFF7BA
:1024F000BFFD0346626922F400326261184638BDAE
:1025000000231A4687E700BF0020024070B5054649
:102510000C4616464CF25030FFF7AAFD034660BB4E
:10252000324B1B6813F4807F29D1314B1B684FF667
:10253000FF72934231D02F4A02EA432202F1006334
:102540004FF0006205F0030101292ED002293CD092
:10255000294CA06A20F0004005F000452843A06205
:10256000636943F4003363614CF25030FFF780FD40
:102570000346626922F400326261184670BD1C4B4A
:102580001B684FF6FF7293420BD01A4A02EA4322AD
:1025900002F100624FF00063D4E7184B4FF0006285
:1025A000D0E74FF00063154ACCE7A41A12494B6AF2
:1025B0001B0C1B0443EAD4034B62B21A8B6A1B0C3C
:1025C0001B0443EAD2028A62C2E7E41A0A494A6C4F
:1025D000120C120442EAD4044C64F21A8B6C1B0CE9
:1025E0001B0443EAD2028A64B2E700BF0000014044
:1025F000E075FF1F00FE1F000020024000000808D9
:1026000038B5234B1B78012B3FD00446204B0122C9
:102610001A7000225A60036813F0010F15D10025CB
:10262000236813F0020F1AD1236813F0040F1DD191
:10263000236813F0080F03D0216A626A91421DD10A
:10264000134B00221A70284638BDC2688168406862
:10265000FFF76AFE05460028E2D00125E0E7206981
:10266000FFF7A8FE0028DFD00125DDE7A16960693A
:10267000FFF7C0FE0028DBD00125D9E7E069FFF7AE
:1026800045FF0028DCD00125DAE70225DBE700BFA3
:102690000000002010B504460623036040680228AD
:1026A00001D9042807D12246072342F80C3B04F144
:1026B0000801FFF793FDFFF7BFFD2061FFF7CCFD99
:1026C000A061E369013B012B00D910BD236843F0F1
:1026D0000803224642F8243B04F1200104F11C00C7
:1026E000FFF7C2FDF1E7000011F0010F16D10E4A0D
:1026F000536943F4006353610B4B5A6922F4FF6240
:10270000C00000F4FF60104358615A6942F00202B1
:102710005A615A6942F480325A617047024A5369D9
:1027200023F400635361E7E700200240144B1B7F52
:10273000DBB2012B01D0032B0CD1124A116841F4FA
:1027400000611160116821F400611160116841F4A9
:1027500000711160023BDBB2012B03D9084B002250
:102760001A777047074B1A6842F480521A601A6849
:1027700022F480521A601A6842F480621A60EDE70F
:102780000000002000200240F8B53C4B1B78012BD4
:1027900071D00E460446394B01221A704CF250306B
:1027A000FFF766FC0746002860D1344B00225A60D0
:1027B000334B1B6813F4007F33D0314B1A6822F47B
:1027C00000721A601B6813F4806F26D02C4A1368BD
:1027D00023F480631360294B03221A772368012BAB
:1027E00031D04FF0FF333360A568A368E26813442B
:1027F000AB4239D961682846FFF776FF4CF250307A
:10280000FFF736FC1E4A536923F4FF6323F00203EB
:102810005361074638BB0135E7E7184B01221A77A9
:10282000DCE7174B1B6813F4806F08D0144A136859
:1028300023F480631360114B02221A77CEE70F4B0B
:1028400000221A77CAE76068FFF7B0FC4CF25030FC
:10285000FFF70EFC07460A4A536923F4004323F0AE
:102860000403536100E03560FFF760FF034B002273
:102870001A703846F8BD0227FBE700BF00000020B1
:1028800000200240F0B482B0002341E0D0F82CC018
:102890002CEA040CC6F3C0049C4044EA0C04C46255
:1028A00086E0062400E00024B4403C430235664E36
:1028B00046F82540654C2568D44304EA05064F6870
:1028C00017F4803F01D042EA0506604D2E606D6826
:1028D00004EA05064F6817F4003F01D042EA0506F6
:1028E0005A4D6E60AD6804EA05064F6817F4801F04
:1028F00001D042EA0506554DAE60ED682C404E68A9
:1029000016F4001F01D042EA0504504AD460013396
:102910000A6832FA03F400F0938001249C402240BC
:10292000F5D04D68022D01D0122D10D1DE080836E9
:1029300050F826C003F00705AF000F25BD402CEA74
:10294000050C0D69BD4045EA0C0540F826500668A7
:102950005F000325BD40ED4305EA060C4E6806F016
:102960000306BE4046EA0C0606604E6806F1FF3CD0
:10297000BCF1010F03D9112E01D0122E11D186689E
:1029800005EA060CCE68BE4046EA0C06866046683C
:1029900026EA040C4E68C6F300169E4046EA0C0672
:1029A00046604E6806F0030CBCF1030F3FF46EAFB7
:1029B000C46825408C68BC402C43C4604C6814F04B
:1029C000805FA4D0224C256E45F001052566246E5B
:1029D00004F001040194019C9D08AE1C1A4C54F8AB
:1029E000267003F00304A6000F24B44027EA04076E
:1029F000B0F1904F3FF457AF164CA04216D004F5FB
:102A00008064A04214D004F58064A04212D004F582
:102A10008064A04210D004F58064A0420ED004F57A
:102A20008064A0423FF43DAF07243DE701243BE72B
:102A3000022439E7032437E7042435E7052433E784
:102A400002B0F0BC704700BF00000140000401402C
:102A500000100240000400480AB981627047816199
:102A60007047000008B5054B5B69034200D108BD03
:102A7000024B586105F088FCF9E700BF00040140F3
:102A800003689A6912F0020F01D000229A6203686B
:102A90009A6912F0010F03D19A6942F001029A611A
:102AA000704770B4039E05686868740D04F4806410
:102AB00044F07F7444F4583444F47F7444F00304C5
:102AC00020EA0400C1F3090141EA024119433143FC
:102AD0000143696070BC704770B504460D461646E8
:102AE00003689B6913F0100F1CD023689A6912F0D9
:102AF000200F19D1B5F1FF3FF7D0FEF741FA801B47
:102B0000A84201D8002DF0D1636C43F02003636428
:102B1000202384F84130002384F8423084F8403088
:102B2000012020E000201EE01022DA612368202529
:102B3000DD612046FFF7A4FF2268536823F0FF738E
:102B400023F48B3323F4FF7323F001035360636C8E
:102B500043F00403636484F84150002384F8423056
:102B600084F84030012070BD70B504460D4616460D
:102B700023689B6913F0020F1DD132462946204677
:102B8000FFF7AAFFC8B9B5F1FF3FF1D0FEF7F8F99A
:102B9000801BA84201D8002DEAD1636C43F02003CA
:102BA0006364202384F84130002384F8423084F8A1
:102BB0004030012000E0002070BD0120FCE7F8B5A6
:102BC00005460F4616461C462B689B6937EA0303E9
:102BD0000CBF01230023B34218D1B4F1FF3FF3D05F
:102BE000FEF7CEF9069BC01AA04201D8002CEBD10B
:102BF0006B6C43F020036B64202385F84130002385
:102C000085F8423085F84030012000E00020F8BD12
:102C100070B505460C4616462B689B6913F0200FCD
:102C20001AD1324621462846FFF756FFB0B9FEF7C3
:102C3000A7F9801BA04201D8002CEDD16B6C43F0AA
:102C400020036B64202385F84130002385F842304F
:102C500085F84030012070BD0020FCE70120FAE734
:102C600070B504460D46164623689B6913F0040FA1
:102C70003ED1324629462046FFF72EFF0146002866
:102C800038D123689A6912F0200F13D1FEF778F932
:102C9000801BA84201D8002DE6D1636C43F02003CD
:102CA0006364202384F84130002384F840300121FC
:102CB000084670BD9A6912F0040F02D0228D002AD6
:102CC000F6D12022DA6121684B6823F0FF7323F4E8
:102CD0008B3323F4FF7323F001034B600023636401
:102CE00084F8412084F8423084F840300121DFE745
:102CF0000021DDE70121DBE77047002859D010B53E
:102D0000044690F84130002B43D0242384F841300E
:102D10002268136823F0010313606368226823F0BC
:102D2000706313612268936823F400439360E3683F
:102D3000012B33D0A368226843F404439360E36813
:102D4000022B31D02268536843F0007343F40043F0
:102D500053602268D36823F40043D3602369626917
:102D60001343A169226843EA0123D360E369216A1E
:102D700022680B4313602268136843F00103136059
:102D800000206064202384F84130206384F84200EE
:102D900010BD80F84030FFF7AFFFB6E7A3682268A8
:102DA00043F400439360CAE723684FF400625A601B
:102DB000C8E70120704700002DE9F04383B090F888
:102DC0004150EDB2202D40F0A48090F84040012CFD
:102DD00000F0A480984617460E4604464FF00109BD
:102DE00080F84090FEF7CCF80546009019234A463B
:102DF0004FF400412046FFF7E2FE002840F09080AB
:102E0000212384F84130102384F842300023636486
:102E10006762A4F82A806363638D9BB2FF2B0AD993
:102E2000FF222285424B00934FF0807331462046AB
:102E3000FFF737FE18E0628D92B222853C4B00937B
:102E40004FF00073D2B231462046FFF72AFE0BE066
:102E5000628D92B22285002300934FF00073D2B2AC
:102E600031462046FFF71DFE638D9BB2002B33D009
:102E70002A460A992046FFF777FE002852D1626A57
:102E8000236812789A62636A01336362638D013B3F
:102E90009BB26385238D013B9BB22385628D92B2E9
:102EA000002AE1D0002BDFD100950A9B002280216F
:102EB0002046FFF784FE002836D1638D9BB2FF2B9E
:102EC000C6D9FF222285002300934FF0807331463C
:102ED0002046FFF7E6FDC7E72A460A992046FFF796
:102EE00097FE034610BB22682021D161206842680A
:102EF00022F0FF7222F48B3222F4FF7222F00102E0
:102F0000426084F84110002284F8422084F8402076
:102F100000E00223184603B0BDE8F0830223F9E77E
:102F20000123F7E70123F5E70123F3E70123F1E7A5
:102F3000002000802DE9F04383B090F84150EDB2BD
:102F4000202D40F0A48090F84040012C00F0A48097
:102F5000984617460E4604464FF0010980F8409007
:102F6000FEF70EF80546009019234A464FF400413B
:102F70002046FFF724FE002840F09080222384F8AA
:102F80004130102384F84230002363646762A4F860
:102F90002A806363638D9BB2FF2B0AD9FF222285AF
:102FA000424B00934FF0807331462046FFF779FD86
:102FB00018E0628D92B222853C4B00934FF0007373
:102FC000D2B231462046FFF76CFD0BE0628D92B223
:102FD0002285002300934FF00073D2B23146204681
:102FE000FFF75FFD638D9BB2002B33D02A460A9911
:102FF0002046FFF735FE002852D123685A6A636ADB
:103000001A70636A01336362238D013B9BB223858F
:10301000628D013A92B26285628D92B2002AE1D04D
:10302000002BDFD100950A9B002280212046FFF76C
:10303000C6FD002836D1638D9BB2FF2BC6D9FF2277
:103040002285002300934FF0807331462046FFF71E
:1030500028FDC7E72A460A992046FFF7D9FD03460F
:1030600010BB22682021D1612068426822F0FF72E3
:1030700022F48B3222F4FF7222F00102426084F8C3
:103080004110002284F8422084F8402000E002230E
:10309000184603B0BDE8F0830223F9E70123F7E700
:1030A0000123F5E70123F3E70123F1E70024008082
:1030B00040B338B5044603684CF6CC421A60036846
:1030C00045F255521A60036842685A600368826884
:1030D0009A60FDF755FF05462368DA6832B1FDF7BF
:1030E0004FFF401B3028F7D9032038BD1969E2682B
:1030F000914202D01A610020F7E74AF6AA221A602C
:103100000020F2E70120704703684AF6AA221A60FD
:1031100000207047704700001E4A536823F00E03DA
:1031200001680B4353601C4B5A6822F480325A608A
:103130001A6822F480321A60DA6822F48032DA6087
:103140009A6822F480329A60436813F4803F04D076
:10315000114A136843F480331360436813F4003F4B
:1031600004D00D4A536843F480335360436813F02E
:10317000010F04D0084A936843F480339360436896
:1031800013F0020F04D0044AD36843F48033D360B1
:10319000002070470070004000040140024A53685C
:1031A00043F00103536070470070004010B50C46B7
:1031B000A0B90F4B5B6913F4007F0AD10D4A136964
:1031C00023F004031361012C10D040BF20BF20BFA7
:1031D00010BD00F02DF80028F0D0F9E7044B5B6932
:1031E00013F4007FEAD100F01BF8E7E730BFEFE708
:1031F0000070004000ED00E008B5B0F5804F03D04E
:10320000084600F03DF808BD084600F055F8FAE71A
:10321000024B186800F4C060704700BF00700040A7
:10322000024A136843F48043136070470070004003
:10323000104A136823F4804313600F4B1A6832233B
:1032400003FB02F30D4AA2FB03239B0C013300E0B6
:10325000013B084A526912F4007F01D0002BF7D1DC
:10326000044B5B6913F4007F01D1002070470320F9
:10327000704700BF00700040F800002083DE1B4351
:103280000B4A136823F0070313600A4A136943F0DB
:1032900004031361012808D040BF20BF20BF054AA6
:1032A000136923F004031361704730BFF7E700BFD1
:1032B0000070004000ED00E00C4A136823F00703A3
:1032C00043F0010313600A4A136943F004031361D6
:1032D000012808D040BF20BF20BF054A136923F052
:1032E00004031361704730BFF7E700BF0070004070
:1032F00000ED00E0064A136823F0070343F00403DF
:103300001360044A136943F00403136130BF70472C
:103310000070004000ED00E030B583B00546204B62
:103320009B6D13F0805F0BD0FFF772FFB0F5007F4D
:1033300017D0802D1FD82DD0702D2DD000211BE04F
:10334000174CA36D43F08053A365A36D03F0805326
:103350000193019BFFF75CFFA36D23F08053A365EE
:10336000E4E7802D03D9A02D03D9022104E0002138
:1033700002E0012100E003210A4A136823F0070359
:103380000B431360136803F007038B4206D0012040
:1033900003B030BD0221EFE70121EDE70020F7E7A0
:1033A0000010024000200240314A9368D26802F0C7
:1033B000030213F00C030AD00C2B06D0042B1FD0F1
:1033C000082B20D00020014610E0012AF6D1284A1F
:1033D000126812F0080F0CD1254AD2F89420C2F3DB
:1033E0000322244951F8221043B100200C2B0DD0A8
:1033F00070471F4A1268C2F30312F2E70846F5E766
:103400001D480021F2E71D480021EFE7184BDA685C
:1034100002F00302DB68C3F302130133022A0AD06D
:10342000032A1AD0B1FBF3F3114AD068C0F3062087
:1034300000FB03F008E01048B0FBF3F30C4AD0683F
:10344000C0F3062000FB03F0094BDB68C3F34163C4
:1034500001335B00B0FBF3F0CAE70848B0FBF3F3BD
:10346000034AD068C0F3062000FB03F0ECE700BF7E
:1034700000100240687301080024F40000127A0072
:10348000002800F09082F0B583B00446AC4B9D68F4
:1034900005F00C05DE6806F00306036813F0100F54
:1034A0005DD0E5B10C2D18D0A369002B00F0B780DA
:1034B000A34A136843F001031360FDF761FD07465B
:1034C0009F4B1B6813F0020F40F09680FDF758FDEC
:1034D000C01B0228F4D9032371E2012EE4D1984BDA
:1034E0001B6813F0020F03D0A369002B00F05E826B
:1034F000206A934B1B6813F0080F5DD0904B1B683C
:1035000003F0F00398425ED9FFF706FF002840F071
:103510004F828B4B1A6842F008021A601A6822F038
:10352000F002216A0A431A605A6822F47F42E16974
:1035300042EA01225A60FFF737FF814B9B68C3F3D1
:103540000313804AD35C03F01F03D8407E4B1860FE
:103550000F2001F0A3FF0346002840F030822368CB
:1035600013F0010F7AD0082D6FD00C2D6BD063684B
:10357000B3F5803F00F09180B3F5A02F00F0938069
:103580006F4B1A6822F480321A601A6822F4802283
:103590001A606368002B00F09380FDF7F1FC07468A
:1035A000674B1B6813F4003F58D1FDF7E9FCC01BC3
:1035B0006428F5D9032302E2614BD3F894301B0948
:1035C00003F0F0039EE75E4B1A6842F008021A60AF
:1035D0001A6822F0F002216A0A431A605A6822F43B
:1035E0007F42E16942EA01225A60206AFFF794FEB5
:1035F0000028A0D00123E2E1514B1A6842F00802F2
:103600001A601A6822F0F002216A0A431A605A68A6
:1036100022F47F42E16942EA01225A609FE7484A68
:10362000136823F001031360FDF7AAFC0746444B1F
:103630001B6813F0020F92D0FDF7A2FCC01B0228FA
:10364000F5D90323BBE1032E91D13D4B1B6813F445
:10365000003F03D06368002B00F0AC81236813F0B7
:10366000020F4FD0042D3CD00C2D38D0E368002B36
:1036700075D0334A136843F480731360FDF780FC00
:1036800006462F4B1B6813F4806F5FD1FDF778FC63
:10369000801B0228F5D9032391E1294A136843F4DA
:1036A0008033136075E703F18043A3F53C331A6858
:1036B00042F480221A601A6842F480321A6068E785
:1036C000FDF75EFC07461E4B1B6813F4003FC5D098
:1036D000FDF756FCC01B6428F5D903236FE1022EC9
:1036E000C4D1174B1B6813F4806F03D0E368002B21
:1036F00000F06281124A536823F0F853216943EACB
:1037000001635360236813F0080F53D06369002BE3
:1037100039D00B4AD2F8943043F00103C2F8943008
:10372000FDF72EFC0646064BD3F8943013F0020F3B
:1037300040D1FDF725FC801B0228F4D903233EE18C
:103740000010024098730108F80000209E4A536858
:1037500023F0F853216943EA01635360D2E79A4AA0
:10376000136823F480731360FDF70AFC0646964B3A
:103770001B6813F4806FC5D0FDF702FC801B022884
:10378000F5D903231BE1904AD2F8943023F00103CA
:10379000C2F89430FDF7F4FB06468B4BD3F8943017
:1037A00013F0020F06D0FDF7EBFB801B0228F4D9C3
:1037B000032304E1236813F0040F7AD0824B9B6D3E
:1037C00013F0805F0BD1804B9A6D42F080529A6566
:1037D0009B6D03F080530193019B012600E00026BE
:1037E0007A4B1B6813F4807F26D0A368012B37D057
:1037F000052B3DD0744BD3F8902022F00102C3F882
:103800009020D3F8902022F00402C3F89020A368FF
:10381000002B3BD0FDF7B4FB07466B4BD3F8903041
:1038200013F0020F44D1FDF7ABFBC01B41F288330C
:103830009842F2D90323C2E0644A136843F48073C8
:103840001360FDF79DFB0746604B1B6813F4807FF8
:10385000CBD1FDF795FBC01B0228F5D90323AEE0C1
:10386000594AD2F8903043F00103C2F89030CEE7C5
:10387000554BD3F8902042F00402C3F89020D3F8BF
:10388000902042F00102C3F89020C0E7FDF778FBDA
:1038900007464D4BD3F8903013F0020F08D0FDF7D8
:1038A0006FFBC01B41F288339842F2D9032386E0B4
:1038B00066BBA36A002B00F081800C2D00F0828093
:1038C000022B29D0404B1A6822F080721A601B68C4
:1038D00013F0205F04D13C4AD36823F00303D36084
:1038E000394AD36823F0887323F48033D360FDF71B
:1038F00047FB0446344B1B6813F0007F51D0FDF7A3
:103900003FFB001B0228F5D9032358E02E4A936D94
:1039100023F080539365CCE72B4A136823F0807320
:103920001360FDF72DFB0546274B1B6813F0007F46
:1039300006D0FDF725FB401B0228F5D903233EE006
:10394000236B5A1E636B1B0243EA0213A26B12091C
:1039500043EA4243E26A1343E26B5208013A43EA04
:103960004253226C5208013A43EA4263164AD3603A
:10397000136843F080731360D36843F08073D3609F
:10398000FDF7FEFA0446104B1B6813F0007F06D1CA
:10399000FDF7F6FA001B0228F5D903230FE00023F8
:1039A0000DE000230BE0012318467047012306E0D9
:1039B000012304E0012302E0012300E00023184674
:1039C00003B0F0BD0123FAE7001002400070004090
:1039D000002800F09A8070B504464E4B1B6803F037
:1039E00007038B420CD24B4A136823F007030B43A7
:1039F0001360136803F007038B4201D0012070BDF0
:103A00000D46236813F0010F39D06368032B09D0EA
:103A1000022B26D063BB404A126812F0020F06D177
:103A20000120ECE73C4A126812F0007F6FD03A495F
:103A30008A6822F0030213438B60FDF7A1FA064661
:103A4000354B9B6803F00C036268B3EB820F16D012
:103A5000FDF796FA801B41F288339842F0D9032093
:103A6000CDE72D4A126812F4003FE0D10120C6E7ED
:103A7000294A126812F4806FD9D10120BFE7236868
:103A800013F0020F06D0244A936823F0F003A168D4
:103A90000B4393601F4B1B6803F00703AB420CD929
:103AA0001C4A136823F007032B431360136803F0C9
:103AB0000703AB4201D00120A1E7236813F0040FF4
:103AC00006D0154A936823F4E063E1680B439360E2
:103AD000236813F0080F07D00F4A936823F460534C
:103AE000216943EAC1039360FFF75EFC0A4B9B68C0
:103AF000C3F30313094AD35C03F01F03D840084BF8
:103B000018600F2001F0CAFC79E7012070470120FE
:103B100075E700BF002002400010024098730108C2
:103B2000F8000020014B1868704700BFF800002023
:103B300008B5FFF7F7FF054B9B68C3F30223044A60
:103B4000D35C03F01F03D84008BD00BF0010024043
:103B5000A873010808B5FFF7E5FF054B9B68C3F3A1
:103B6000C223044AD35C03F01F03D84008BD00BF42
:103B700000100240A87301081F230360434B1B6819
:103B800013F4802F5AD04FF4A02343603F4B1B689F
:103B900013F0010F5ED0012383613C4B5A68C2F3DE
:103BA0000722C2611A6802F0F00202621B6813F475
:103BB000807F52D04FF48073C360344A5368C3F39C
:103BC00004630361D2F8903013F0040F48D005234A
:103BD00083602E4BD3F8943013F0010F4CD00123A7
:103BE00043610023436203F1804303F504331B6800
:103BF00013F0807F43D002238362244AD36803F00A
:103C00000303C362D368C3F3021301330363D368AE
:103C1000C3F306234363D368C3F3415301335B000B
:103C2000C363D368C3F3416301335B000364D368A8
:103C300013F4003F26D1072383637047134B1B689F
:103C400013F4803F03D04FF4803343609EE700239A
:103C500043609BE7002383619FE70023C360ACE7D9
:103C60000A4BD3F8903013F0010F02D00123836088
:103C7000AFE700238360ACE700234361B1E7012392
:103C80008362BAE711238363704700BF00100240CC
:103C90000F2303600B4B9A6802F0030242609A689C
:103CA00002F0F00282609A6802F4E062C2609B68EF
:103CB000DB0803F4E0630361034B1B6803F00703B5
:103CC0000B6070470010024000200240F8B55A4BCC
:103CD000DB6813F0030F18D0574BDB6803F00303C6
:103CE0000268934202D001252846F8BD002A00F060
:103CF000A080514BDB68C3F3021301334268934247
:103D000001D00125F0E700251AE00368022B59D005
:103D1000032B5ED0012B01D001250FE0464A12682B
:103D200012F0020F61D0444DEA6822F07302446839
:103D3000013C43EA04131343EB600025002DD3D16B
:103D40000F4604463C4A136823F080631360FDF776
:103D500017F90646384B1B6813F0006F05D0FDF7C6
:103D60000FF9801B0228F5D90325002DBCD1002FA7
:103D70003DD131490B6923F41F3323F44073A0680C
:103D8000E2681209520442EA002213430B612A4AF4
:103D9000136843F080631360FDF7F2F80646264B84
:103DA0001B6813F0006F05D1FDF7EAF8801B0228AD
:103DB000F5D90325002D97D11F4A1369A1690B433B
:103DC000136191E71C4A126812F4806FABD1012590
:103DD000B4E7194A126812F4003FA4D1164A1268D7
:103DE00012F4802F9FD10125A8E70125A6E7012F16
:103DF0000FD01148026922F0C06222F4FE42A1688D
:103E000063695B08013B5B0643EA012313430361DB
:103E1000BDE70948026922F4C00222F4FE42A1680B
:103E200023695B08013B5B0543EA012313430361FC
:103E3000ADE7012558E700BF00100240F8B5514B2F
:103E4000DB6813F0030F18D04E4BDB6803F003035D
:103E50000268934202D001252846F8BD002A00F0EE
:103E60008E80484BDB68C3F30213013342689342F0
:103E700001D00125F0E700251AE00368022B59D094
:103E8000032B5ED0012B01D001250FE03D4A1268C3
:103E900012F0020F61D03B4DEA6822F073024468D1
:103EA000013C43EA04131343EB600025002DD3D1FA
:103EB0000F460446334A136823F080531360FDF71E
:103EC0005FF806462F4B1B6813F0005F05D0FDF727
:103ED00057F8801B0228F5D90325002DBCD1002FEF
:103EE0003DD128494B6923F41F3323F44073A06864
:103EF000E2681209520442EA002213434B61214A4C
:103F0000136843F080531360FDF73AF806461D4BE3
:103F10001B6813F0005F05D1FDF732F8801B022803
:103F2000F5D90325002D97D1164A536961690B43D2
:103F3000536191E7134A126812F4806FABD10125E7
:103F4000B4E7104A126812F4003FA4D10D4A126877
:103F500012F4802F9FD10125A8E70125A6E7094883
:103F6000426922F0C06222F4FE42A16823695B0824
:103F7000013B5B0643EA012313434361BFE701258D
:103F80006AE700BF001002402DE9F04182B004460C
:103F9000036813F4006F2FD0436EB3F5800F25D064
:103FA00008D9B3F5000F10D0B3F5400F40F0998059
:103FB000002610E0002B40F0948000210430FFF731
:103FC00085FE06463EB1374618E05E4AD36843F4A4
:103FD0008033D36000265B4AD2F8883023F4400354
:103FE000616E0B43C2F88830002707E000212030C3
:103FF000FFF724FF0646E5E700273E46236813F453
:10400000805F15D0A36EB3F1807F7AD06CD9B3F105
:10401000007F70D0B3F1407F7AD1002E7BD1494A26
:10402000D2F8883023F04073A16E0B43C2F8883079
:10403000236813F4003F00F08E80424B9B6D13F019
:10404000805F6AD13F4B9A6D42F080529A659B6DBA
:1040500003F080530193019B4FF001083A4A136823
:1040600043F480731360FCF78BFF0546364B1B68E7
:1040700013F4807F05D1FCF783FF401B0228F5D99C
:104080000326002E62D12F4BD3F8903013F44073E7
:1040900016D0D4F884209A4212D02A4AD2F890300E
:1040A00023F44073D2F8901041F48031C2F890109C
:1040B000D2F8901021F48031C2F89010C2F89030FC
:1040C00013F0010F2CD1002E40F043811D4AD2F88D
:1040D000903023F44073D4F884100B43C2F890302E
:1040E00035E001273E4689E793B90021201DFFF7FF
:1040F000EDFD064691E7134AD36843F48033D3605D
:104100008BE7002104F12000FFF798FE064684E7C4
:1041100001273E468CE737468AE74FF000089DE7C7
:10412000FCF72EFF0546074BD3F8903013F0020F33
:10413000C9D1FCF725FF401B41F288339842F2D9E0
:104140000326C0E700100240007000403746B8F177
:10415000000F40F00081236813F0010F08D09D4A42
:10416000D2F8883023F00303A16B0B43C2F88830E8
:10417000236813F0020F08D0964AD2F8883023F053
:104180000C03E16B0B43C2F88830236813F0040F73
:1041900008D0904AD2F8883023F03003216C0B43CA
:1041A000C2F88830236813F0080F08D0894AD2F883
:1041B000883023F0C003616C0B43C2F88830236859
:1041C00013F0100F08D0834AD2F8883023F44073DC
:1041D000A16C0B43C2F88830236813F0200F08D07D
:1041E0007C4AD2F8883023F44063E16C0B43C2F878
:1041F0008830236813F4007F08D0764AD2F88830DC
:1042000023F44023E16D0B43C2F88830236813F494
:10421000806F08D06F4AD2F8883023F44013216EA3
:104220000B43C2F88830236813F0400F08D0694A66
:10423000D2F8883023F44053216D0B43C2F8883004
:10424000236813F0800F08D0624AD2F8883023F434
:104250004043616D0B43C2F88830236813F4807FBC
:1042600008D05C4AD2F8883023F44033A16D0B4368
:10427000C2F88830236813F4005F0FD0554AD2F893
:10428000883023F04063E16E0B43C2F88830E36E60
:10429000B3F1006F65D0B3F1806F67D0236813F47A
:1042A000002F0FD04B4AD2F8883023F04063216FA3
:1042B0000B43C2F88830236FB3F1006F5ED0B3F1C7
:1042C000806F60D0236813F4802F0FD0414AD2F85A
:1042D000883023F04063616F0B43C2F88830636F0E
:1042E000B3F1006F57D0B3F1806F59D0236813F446
:1042F000804F0FD0374AD2F8883023F04053A16F57
:104300000B43C2F88830A36FB3F1805F50D0B3F194
:10431000005F55D0236813F4004F08D02D4AD2F81F
:10432000883023F08043E16F0B43C2F88830236864
:1043300013F4803F09D0274AD2F8883023F0004395
:10434000D4F880100B43C2F88830384602B0BDE87C
:10435000F0813746FBE61F4A936D23F08053936547
:10436000F9E6D36843F48013D36097E70121201D59
:10437000FFF7ACFC002891D007468FE7D36843F4E1
:104380008013D3609EE70121201DFFF79FFC0028CA
:1043900098D0074696E7D36843F48013D360A5E727
:1043A0000121201DFFF792FC00289FD007469DE7C2
:1043B0000221201DFFF78AFC0028ABD00746A9E7A1
:1043C000022104F12000FFF739FD0028A2D00746A2
:1043D000A0E700BF00100240704738B590F82030C9
:1043E000012B5DD00446012380F82030022380F8A1
:1043F00021300368CA225A62036853225A62B1F517
:10440000807F21D00268936823F400739360026870
:10441000936823F400539360FCF7B2FD05462368CC
:10442000DB6813F0020F31D1FCF7AAFD401BB0F599
:104430007A7FF4D92368FF225A62032084F821008E
:10444000002384F820302AE00268936823F4807304
:1044500093600268936823F480539360FCF790FDA7
:1044600005462368DB6813F0010F0FD1FCF788FDC8
:10447000401BB0F57A7FF4D92368FF225A620320EB
:1044800084F82100002384F8203008E02368FF220C
:104490005A62012384F82130002084F8200038BDBE
:1044A0000220FCE738B504460268D36823F0A00375
:1044B000D360FCF765FD05462368DB6813F0200F29
:1044C00007D1FCF75DFD401BB0F57A7FF4D90320DE
:1044D00000E0002038BD38B50368DA6812F0400FFC
:1044E00001D0002038BD04464FF0FF32DA60FCF7FF
:1044F00047FD05462368DB6813F0400F07D1FCF742
:104500003FFD401BB0F57A7FF4D90320EAE7002095
:10451000E8E738B5002864D0044690F82130002B35
:1045200044D0022384F821302368CA225A622368C7
:1045300053225A622046FFF7CEFF054600283AD1A3
:104540002268936823F4E00323F04003936021681A
:104550008A68636820690343A069034313438B603F
:104560002368E2681A6122681369A16843EA01437B
:1045700013612268D36823F08003D36023689B68AB
:1045800013F0200F20D02268D36C23F00303D364F0
:104590002168CB6CE269606902431343CB642368F2
:1045A000FF225A62012384F821300BE080F820308A
:1045B000FFF712FFB5E72368FF225A62042384F84D
:1045C00021300125284638BD2046FFF76BFF002823
:1045D000D9D02368FF225A62042384F821300125B0
:1045E000F0E70125EEE7002302E001330A38C0B20C
:1045F0000928FAD81B01DBB21843704770B590F850
:104600002030012B6ED0012380F82030022380F867
:1046100021303AB94B7813F0100F03D003F0EF03B9
:104620000A334B700E460446002A34D1C878FFF78F
:10463000DAFF05047078FFF7D6FF45EA0025B07869
:10464000FFF7D1FF2843357840EA45352368CA2271
:104650005A62236853225A622046FFF73CFF0646FF
:1046600020BB236825F07F4525F0C0055D602268EA
:10467000D36823F08003D36023689B6813F0200F76
:1046800020D02368FF225A62012384F821300023BE
:1046900084F8203014E0CD784878000240EA0540E4
:1046A0008D7828430D7840EA4535CFE72368FF220F
:1046B0005A62042384F82130002384F82030012634
:1046C000304670BD2046FFF7EDFE0028D9D02368A4
:1046D000FF225A62042384F82130002384F820301A
:1046E0000126EDE70226EBE7F8B590F82030012B24
:1046F0007FD015460E460446012380F82030022361
:1047000080F821300368CA225A62036853225A6231
:10471000FFF7E1FE074600283ED1002D47D1236870
:104720009B6813F0400F01D10023F3703078FFF73E
:104730005AFF05047078FFF756FF45EA0025B07868
:10474000FFF751FF2843F37840EA8350236800F0D5
:104750007F3020F0FE4018602268936823F48023A5
:10476000936021688B68F2683069024313438B6061
:104770002268D36823F08003D36023689B6813F01A
:10478000200F26D02368FF225A62012384F82130AB
:10479000002384F820302DE02368FF225A6204238E
:1047A00084F82130002384F82030012722E0236898
:1047B0009B6813F0400F01D10023F37033787078B9
:1047C000000240EA0340B3781843F37840EA83508C
:1047D000BCE72046FFF766FE0028D3D02368FF22FF
:1047E0005A62042384F82130002384F82030012702
:1047F00000E002273846F8BDF8B590F82030012BCC
:1048000000F0C6800D460446012380F820300223C4
:1048100080F82130002A50D103689B6813F0400FC4
:1048200001D10023CB70EE692878FFF7DCFE070486
:104830006878FFF7D8FE47EA0027A878FFF7D3FE8D
:104840000743E87847EA805795F82000FFF7CBFE4A
:1048500047EA006006436B691E436F68AB691F43FC
:104860002368CA225A62236853225A626B6AB3F5DC
:10487000807F3CD02268936823F4007393602268A1
:10488000D368DBB263F42073D360FCF779FB054691
:104890002368DA6812F0020F5AD1FCF771FB401B53
:1048A000B0F57A7FF4D92368FF225A62032084F896
:1048B0002100002384F8203069E003689B6813F02E
:1048C000400F01D10023CB70EA6929786B781B0275
:1048D00043EA0143A9780B43E97843EA815395F809
:1048E000201043EA016313436E691E43B5E7226853
:1048F000936823F4807393602268D368DBB263F417
:10490000C073D360FCF73CFB05462368DA6812F0FD
:10491000010F0FD1FCF734FB401BB0F57A7FF4D9BF
:104920002368FF225A62032084F82100002384F8C0
:1049300020302CE0DE6123685F642268936843F4D2
:10494000807393602268936843F4805393600CE013
:104950001E6223689F642268936843F40073936027
:104960002268936843F4005393600A4B1A6842F438
:1049700080221A609A6842F480229A602368FF229B
:104980005A62012384F82130002084F82000F8BD09
:104990000220FCE700040140030903EB83035A00F3
:1049A00000F00F001044C0B2704770B503689B6AF6
:1049B0004B6003681B69C3F30E038B6003681B68BD
:1049C00003F07F3323F0FE43C3F305400870C3F3C5
:1049D00006264E7003F07F058D709B0DCB705AB983
:1049E0000C46FFF7D9FF20703046FFF7D5FF607007
:1049F0002846FFF7D1FFA070002070BD70B5036896
:104A00005B6823F07F4323F0C003180CC870C3F326
:104A100004264E7003F03F058D70C3F342330B70D4
:104A20005AB90C46FFF7B8FFE0703046FFF7B4FF05
:104A300060702846FFF7B0FFA070002070BD10B571
:104A4000B2F5807F34D04FF400724A620068026A87
:104A5000806CC0F30E00C2F305440C70C2F3062450
:104A60004C7002F07F048C70C2F38054CC704860AC
:104A7000C2F3056081F8200002F08040C86102F0B6
:104A800080324A6193B90C460878FFF785FF2070A1
:104A90006078FFF781FF6070A078FFF77DFFA0705E
:104AA00094F82000FFF778FF84F82000002010BD64
:104AB0004A620068C269406CC0F30E00C2F305444C
:104AC0000C70C2F306244C7002F07F048C70C2F3A9
:104AD0008054CC704860C2F3056081F8200002F079
:104AE0008040C86102F080324A61CBE790F8203004
:104AF000012B1AD0012280F82020022380F82130D7
:104B00000368CA21596203685321596201688B689E
:104B100043F020038B600368FF21596280F8212055
:104B2000002380F82030184670470220704782B07A
:104B3000036850330193019B03EB81010191019BB9
:104B40001A6002B070470368503353F82100704771
:104B5000F8B505460F4616461C462B689B6837EA93
:104B600003030CBF01230023B34237D0B4F1FF3F4E
:104B7000F3D0FCF705FA069BC01AA04201D2002C24
:104B8000EBD12A68536823F0E00353606B68B3F5F8
:104B9000827F0BD0AB6AB3F5005F14D0012385F898
:104BA0005D30002385F85C30032018E0AB68B3F576
:104BB000004F02D0B3F5806FECD12A68136823F060
:104BC00040031360E6E72A68136823F40053136078
:104BD0002A68136843F400531360DFE70020F8BD30
:104BE000F8B507460C4615461E4602E0B6F1FF3FF3
:104BF0000BD13A6893682340AB423BD0B4F5C06F09
:104C0000F4D1002DF2D1137BF0E7FCF7B9F9069B44
:104C1000C01AB04201D2002EEBD13A68536823F09B
:104C2000E00353607B68B3F5827F0BD0BB6AB3F5BA
:104C3000005F14D0012387F85D30002387F85C30D3
:104C4000032018E0BB68B3F5004F02D0B3F5806FC6
:104C5000ECD13A68136823F040031360E6E73A6842
:104C6000136823F4005313603A68136843F4005345
:104C70001360DFE70020F8BD70B582B004460D4632
:104C8000164600920B4600224FF4C051FFF7A8FFD2
:104C9000B8B900962B46002280212046FFF758FF26
:104CA000B8B900962B4600224FF4C0612046FFF7AA
:104CB00097FF034650B1236E43F02003236603237E
:104CC00004E0236E43F0200323660323184602B05A
:104CD00070BD236E43F0200323660323F6E770477D
:104CE000002862D010B5044690F85D30002B47D004
:104CF000022384F85D302268136823F040031360B8
:104D0000E368B3F5E06F40D90022B3F5706F04D0CB
:104D1000B3F5E06F01D00021A162216B21B9B3F599
:104D2000E06F35D9022323636368A1680B432169CF
:104D30000B4361690B43A16901F400710B43E16905
:104D40000B43216A0B43A06A216803430B60236B6A
:104D5000022B20D0638B03F00403616A0B43616B69
:104D60000B43E1680B43216813434B60A36AB3F51F
:104D7000005F16D000202066012384F85D3010BD4E
:104D800080F85C30FFF7ABFFB2E74FF48052BCE72E
:104D900001232363C8E721680B6843F400630B60B9
:104DA000D8E72368E26A1A61E4E701207047704798
:104DB00090B110B50446022380F85D300268136894
:104DC00023F040031360FFF7F2FF0020206684F811
:104DD0005D0084F85C0010BD012070472DE9F04FA4
:104DE00083B0DDF8308090F85C40012C00F0E68163
:104DF0001D4617460E460446012380F85C30FCF73A
:104E0000BFF8814694F85D30DBB261682268D2F861
:104E100000A0D2F804B0012B15D0B1F5827F0AD0E2
:104E20000225012384F85D30002384F85C30284695
:104E300003B0BDE8F08FA168002940F0B181042BD8
:104E400001D00225EDE7002E00F0AC81002F00F02C
:104E5000AB81002D00F0AA8194F85D30DBB2042B09
:104E600002D0052384F85D30002323662764A4F86C
:104E70004650A4F84450A663E587A587E3642365FC
:104E8000A36AB3F5005F28D0E368B3F5E06F01D8FB
:104E9000012D2CD92268536823F480535360236872
:104EA0001A6812F0400F03D11A6842F040021A60EB
:104EB000E368B3F5E06F7BD963680BB1012D0AD1CC
:104EC000A26B23681288DA60A36B0233A363E38FBB
:104ED000013B9BB2E387012542E0136823F40053B2
:104EE00013602268136843F400531360CCE7226810
:104EF000536843F480535360D1E71AF0040F07D18D
:104F00001BF0080F04D02268136843F40073136089
:104F10002268136843F480531360002500E00025E5
:104F200023689A6812F0010F10D0B4F8462092B2AC
:104F300062B1DA68236C1A80236C02332364B4F8FC
:104F40004630013B9BB2A4F846300125FCF718F827
:104F5000A0EB0900404503D3B8F1FF3F40F02881A2
:104F6000E38F9BB22BB9B4F846309BB2002B00F014
:104F7000CB8023689A6812F0020FD1D0E28F92B2F0
:104F8000002ACDD0002DCBD0A26B1288DA60A36BA3
:104F90000233A363E38F013B9BB2E387E38F9BB2B2
:104FA000002BBCD1A36AB3F5005FA6D00025B7E7FC
:104FB00063680BB1012D0ED1E38F9BB2012B0CD98D
:104FC000A26B23681288DA60A36B0233A363E38FBA
:104FD000023B9BB2E387012563E0A26B2368127852
:104FE0001A73A36B0133A363E38F013B9BB2E38787
:104FF000F1E7E28F92B2012A12D9A26B1288DA602D
:10500000A36B0233A363E38F023B9BB2E387E38F7F
:105010009BB213BBA36AB3F5005F0CD0002551E02F
:10502000A26B12781A73A36B0133A363E38F013B66
:105030009BB2E387EBE71AF0040F07D11BF0080FD0
:1050400004D02268136843F4007313602268136865
:1050500043F480531360002534E0002532E02268D9
:10506000536843F48053536001250CE0226C1B7B92
:105070001370236C01332364B4F84630013B9BB2B8
:10508000A4F846300125FBF77BFFA0EB0900404563
:1050900003D3B8F1FF3F40F08D80B8F1000F00F06E
:1050A0008B80E38F9BB21BB9B4F846309BB25BB3E5
:1050B00023689A6812F0020F04D0E28F92B20AB10C
:1050C000002D96D123689A6812F0010FDBD0B4F856
:1050D000462092B2002AD6D0B4F8462092B2012AD5
:1050E000C4D9DA68236C1A80236C02332364B4F8C1
:1050F0004630023B9BB2A4F84630B4F846309BB22F
:10510000012BACD90125BEE7A36AB3F5005F18D027
:1051100023689A6812F0100F40D0226E42F002020B
:1051200022664FF6EF729A6001254A4641462046B4
:10513000FFF7A2FD00283FF474AE2023236601256B
:105140006FE6CDF800904346012211462046FFF756
:10515000FFFC28B1236E43F002032366032560E6BB
:10516000E368B3F5706F13D023681B7B236B022BAE
:10517000CED1CDF800904346012211462046FFF7DC
:10518000E7FC40B1236E43F002032366032548E6A3
:105190002368DB68BCE723681B7BB9E70025C4E70D
:1051A00002253EE601253CE601253AE6012538E6E2
:1051B000032536E6032534E6032532E6022536E6E6
:1051C000704700000268D36843F00103D3600268AF
:1051D0009168084B0B40062B09D09168054B0B409A
:1051E000B3F5803F03D0136843F001031360002040
:1051F000704700BF07000100704770477047704755
:1052000010B5044603681A6912F0020F11D0DA686B
:1052100012F0020F0DD06FF002021A610123037722
:1052200003689B6913F0030F79D0FFF7E6FF0023B3
:10523000237723681A6912F0040F12D0DA6812F08B
:10524000040F0ED06FF004021A6102232377236843
:105250009B6913F4407F68D02046FFF7CEFF002300
:10526000237723681A6912F0080F12D0DA6812F057
:10527000080F0ED06FF008021A6104232377236809
:10528000DB6913F0030F57D02046FFF7B6FF00236A
:10529000237723681A6912F0100F12D0DA6812F01F
:1052A000100F0ED06FF010021A61082323772368C5
:1052B000DB6913F4407F46D02046FFF79EFF0023B2
:1052C000237723681A6912F0010F03D0DA6812F00D
:1052D000010F3FD123681A6912F0800F03D0DA68FA
:1052E00012F0800F3DD123681A6912F4807F03D039
:1052F000DA6812F0800F3BD123681A6912F0400F70
:1053000003D0DA6812F0400F39D123681A6912F01D
:10531000200F03D0DA6812F0200F37D110BDFFF74D
:105320006BFF2046FFF76AFF81E72046FFF764FF27
:105330002046FFF763FF92E72046FFF75DFF204618
:10534000FFF75CFFA3E72046FFF756FF2046FFF775
:1053500055FFB4E76FF001021A61204600F0E2F851
:10536000B8E76FF080021A61204600F095F8BAE7BE
:105370006FF480721A61204600F08FF8BCE76FF07E
:1053800040021A612046FFF73AFFBEE76FF02002A5
:105390001A61204600F07FF8C0E700000368304A39
:1053A000904212D0B0F1804F0FD0A2F594329042CB
:1053B0000BD002F58062904207D002F580629042E5
:1053C00003D002F59432904203D123F070034A686F
:1053D0001343234A90421ED0B0F1804F1BD0A2F558
:1053E0009432904217D002F58062904213D002F5B9
:1053F000806290420FD002F5943290420BD002F5B9
:105400004062904207D002F58062904203D002F5DC
:105410008062904203D123F44073CA68134323F09F
:1054200080034A69134303608B68C3620B6883621D
:105430000B4B98420FD003F5006398420BD003F555
:105440004063984207D003F58063984203D003F588
:105450008063984201D10B69036301234361704764
:10546000002C0140A8B110B5044690F83D305BB166
:10547000022384F83D30211D2068FFF78FFF0123B0
:1054800084F83D30002010BD80F83C30FFF798FED6
:10549000EEE70120704770477047704700B589B04C
:1054A000002201463620FCF7FBFB3620FCF72CFCE3
:1054B000184B9A6D42F010029A659B6D03F0100331
:1054C0000193019B02A903A8FEF7E2FB069BC3B967
:1054D000FEF72EFB104BA3FB00239B0C013B0F4858
:1054E0000F4A026040F2E732C2604360002303616A
:1054F00083608361FFF7B6FF38B1012009B05DF822
:1055000004FBFEF715FB4000E4E70448FFF75AFEF2
:10551000F4E700BF0010024083DE1B435818002050
:105520000010004008B5FBF723FD08BD08B5024890
:10553000FFF766FE08BD00BF581800200268136818
:1055400023F4907313600268936823F0010393605F
:10555000202380F8723000230366704790F8713082
:10556000DBB2212B00D07047B0F852309BB263B150
:10557000C36C5A1CC26402681B781385B0F85230A1
:10558000013B9BB2A0F85230EDE70268136823F0AC
:10559000800313600268136843F040031360704790
:1055A00090F87130DBB2212B00D07047B0F8523048
:1055B0009BB27BB1C36C02681B88C3F308031385DD
:1055C000C36C0233C364B0F85230013B9BB2A0F805
:1055D0005230EAE70268136823F080031360026820
:1055E000136843F0400313607047704790F87130C0
:1055F000DBB2202B29D151B35AB390F87030012B74
:1056000029D0012380F87030C164A0F85020A0F8A0
:105610005220002343664367212380F8713083685A
:10562000B3F5805F0BD00D4B4366002380F87030DC
:1056300001680A6842F080020A60184670470369F0
:10564000002BF0D1064B4366EFE7022070470120A4
:105650007047012070470220704700BF5D55000869
:10566000A155000890F87230DBB2202B58D10029E8
:1056700058D0002A58D090F87030012B56D0012312
:1056800080F870304165A0F85820A0F85A20002317
:1056900003668368B3F5805F06D0A3B9036973B965
:1056A000FF23A0F85C3011E0036923B940F2FF1337
:1056B000A0F85C300AE0FF23A0F85C3006E07F230E
:1056C000A0F85C3002E0B3F1805F19D0002343679B
:1056D000222380F872300268936843F001039360DC
:1056E0008368B3F5805F15D0114B0366002380F803
:1056F000703001680A6842F490720A601846704778
:1057000003691BB97F23A0F85C30DFE73F23A0F8D3
:105710005C30DBE70369002BE6D1064B0366E5E767
:105720000220704701207047012070470220704717
:1057300055570008B557000808B501680A6822F0F7
:1057400040020A60202280F871200022426604F0A4
:1057500005F808BDB0F85C2090F87230DBB2222B5F
:1057600005D00268138B43F008031383704710B50C
:105770000368998CD2B2436D5C1C44650A401A7070
:10578000B0F85A30013B9BB2A0F85A3003B110BDBB
:105790000268136823F4907313600268936823F01F
:1057A00001039360202380F872300023036603F026
:1057B000F3FFECE708B5B0F85C2090F87230DBB28C
:1057C000222B05D00268138B43F00803138308BD16
:1057D0000368998C436D0A401A80436D0233436518
:1057E000B0F85A30013B9BB2A0F85A30002BEED1F2
:1057F0000268136823F4907313600268936823F0BF
:1058000001039360202380F872300023036603F0C5
:10581000C3FFDCE738B504460268D36911689068B5
:1058200013F00F050CD113F0200F09D011F0200F49
:1058300006D0236E002B00F09380204698478FE01F
:10584000002D6FD010F0010502D111F4907F69D0C6
:1058500013F0010F07D011F4807F04D001201062F3
:10586000626F0243626713F0020F07D035B12268FE
:1058700002201062626F42F00402626713F0040FAC
:1058800007D035B1226804201062626F42F0020234
:10589000626713F0080F09D011F0200F00D12DB16D
:1058A000226808201062626F02436267626F002AFA
:1058B00056D013F0200F06D011F0200F03D0236E26
:1058C0000BB120469847636F13F0080F04D123688B
:1058D0009B6813F0400F1FD02046FFF72FFE236870
:1058E0009A6812F0400F13D09A6822F040029A6032
:1058F000E36E4BB11D4A9A63E06EFCF7CDFA78B3C4
:10590000E06E836B98472BE0204603F063FF27E0AF
:10591000204603F05FFF23E0204603F05BFF0023F7
:1059200063671DE013F4801F02D010F4800F0AD1CA
:1059300013F0800F0ED011F0800F0BD0636E7BB18F
:10594000204698470CE04FF480131362204600F085
:105950002CFB05E013F0400F02D011F0400F00D1F6
:1059600038BD2046FFF7E8FEFAE700BF715900088E
:1059700008B5806A0023A0F85A30A0F8523003F02E
:1059800029FF08BD2DE9F0480446016883680269D3
:10599000134342691343C26913430868A24A024091
:1059A00013430B602268536823F44053E1680B43B0
:1059B0005360A16922689D4B9A4201D0236A194322
:1059C000936823F430630B4393602368984A9342AF
:1059D00027D0984A934238D0974A93424ED0974A5C
:1059E000934261D0964A934274D0904A934200F019
:1059F0008A8010258D4A934200F0AA80E369B3F5AE
:105A0000004F00F03581082D00F2BF81DFE815F06E
:105A10007F0195019F01BD01AA01BD01BD01BD012D
:105A2000B40102F55842D2F8882002F00302032A9A
:105A300009D8DFE802F0020481060125DAE704252F
:105A4000D8E70825D6E71025D4E702F5E632D2F8E4
:105A5000882002F00C020C2A0ED8DFE802F0070DB5
:105A60000D0D090D0D0D6F0D0D0D0B000025C1E77E
:105A70000425BFE70825BDE71025BBE702F5E432A2
:105A8000D2F8882002F03002102A09D005D9202A45
:105A900056D0302A06D10825ACE71AB90025A9E767
:105AA0000425A7E71025A5E702F5E232D2F8882001
:105AB00002F0C002402A09D005D9802A42D0C02A6B
:105AC00006D1082596E71AB9002593E7042591E742
:105AD00010258FE702F5E032D2F8882002F44072F8
